{"contracts/AgentRegistry.sol":{"AgentRegistry":{"abi":[{"inputs":[],"stateMutability":"nonpayable","type":"constructor"},{"inputs":[{"internalType":"address","name":"sender","type":"address"},{"internalType":"uint256","name":"tokenId","type":"uint256"},{"internalType":"address","name":"owner","type":"address"}],"name":"ERC721IncorrectOwner","type":"error"},{"inputs":[{"internalType":"address","name":"operator","type":"address"},{"internalType":"uint256","name":"tokenId","type":"uint256"}],"name":"ERC721InsufficientApproval","type":"error"},{"inputs":[{"internalType":"address","name":"approver","type":"address"}],"name":"ERC721InvalidApprover","type":"error"},{"inputs":[{"internalType":"address","name":"operator","type":"address"}],"name":"ERC721InvalidOperator","type":"error"},{"inputs":[{"internalType":"address","name":"owner","type":"address"}],"name":"ERC721InvalidOwner","type":"error"},{"inputs":[{"internalType":"address","name":"receiver","type":"address"}],"name":"ERC721InvalidReceiver","type":"error"},{"inputs":[{"internalType":"address","name":"sender","type":"address"}],"name":"ERC721InvalidSender","type":"error"},{"inputs":[{"internalType":"uint256","name":"tokenId","type":"uint256"}],"name":"ERC721NonexistentToken","type":"error"},{"anonymous":false,"inputs":[{"indexed":true,"internalType":"uint256","name":"id","type":"uint256"},{"indexed":true,"internalType":"address","name":"caller","type":"address"},{"indexed":false,"internalType":"uint256","name":"feePaid","type":"uint256"}],"name":"AgentCalled","type":"event"},{"anonymous":false,"inputs":[{"indexed":true,"internalType":"uint256","name":"id","type":"uint256"},{"indexed":true,"internalType":"address","name":"owner","type":"address"},{"indexed":false,"internalType":"string","name":"name","type":"string"},{"indexed":false,"internalType":"uint256","name":"serviceFee","type":"uint256"}],"name":"AgentRegistered","type":"event"},{"anonymous":false,"inputs":[{"indexed":true,"internalType":"address","name":"owner","type":"address"},{"indexed":true,"internalType":"address","name":"approved","type":"address"},{"indexed":true,"internalType":"uint256","name":"tokenId","type":"uint256"}],"name":"Approval","type":"event"},{"anonymous":false,"inputs":[{"indexed":true,"internalType":"address","name":"owner","type":"address"},{"indexed":true,"internalType":"address","name":"operator","type":"address"},{"indexed":false,"internalType":"bool","name":"approved","type":"bool"}],"name":"ApprovalForAll","type":"event"},{"anonymous":false,"inputs":[{"indexed":false,"internalType":"uint256","name":"_fromTokenId","type":"uint256"},{"indexed":false,"internalType":"uint256","name":"_toTokenId","type":"uint256"}],"name":"BatchMetadataUpdate","type":"event"},{"anonymous":false,"inputs":[{"indexed":false,"internalType":"uint256","name":"_tokenId","type":"uint256"}],"name":"MetadataUpdate","type":"event"},{"anonymous":false,"inputs":[{"indexed":true,"internalType":"uint256","name":"id","type":"uint256"},{"indexed":false,"internalType":"uint256","name":"newFee","type":"uint256"}],"name":"ServiceFeeUpdated","type":"event"},{"anonymous":false,"inputs":[{"indexed":true,"internalType":"address","name":"from","type":"address"},{"indexed":true,"internalType":"address","name":"to","type":"address"},{"indexed":true,"internalType":"uint256","name":"tokenId","type":"uint256"}],"name":"Transfer","type":"event"},{"inputs":[{"internalType":"uint256","name":"","type":"uint256"}],"name":"agents","outputs":[{"internalType":"uint256","name":"id","type":"uint256"},{"internalType":"address","name":"owner","type":"address"},{"internalType":"string","name":"name","type":"string"},{"internalType":"string","name":"description","type":"string"},{"internalType":"uint256","name":"serviceFee","type":"uint256"},{"internalType":"bool","name":"active","type":"bool"}],"stateMutability":"view","type":"function"},{"inputs":[{"internalType":"address","name":"to","type":"address"},{"internalType":"uint256","name":"tokenId","type":"uint256"}],"name":"approve","outputs":[],"stateMutability":"nonpayable","type":"function"},{"inputs":[{"internalType":"address","name":"owner","type":"address"}],"name":"balanceOf","outputs":[{"internalType":"uint256","name":"","type":"uint256"}],"stateMutability":"view","type":"function"},{"inputs":[{"internalType":"uint256","name":"id","type":"uint256"}],"name":"getAgent","outputs":[{"components":[{"internalType":"uint256","name":"id","type":"uint256"},{"internalType":"address","name":"owner","type":"address"},{"internalType":"string","name":"name","type":"string"},{"internalType":"string","name":"description","type":"string"},{"internalType":"uint256","name":"serviceFee","type":"uint256"},{"internalType":"string[]","name":"capabilities","type":"string[]"},{"internalType":"bool","name":"active","type":"bool"}],"internalType":"struct AgentRegistry.Agent","name":"","type":"tuple"}],"stateMutability":"view","type":"function"},{"inputs":[{"internalType":"uint256","name":"tokenId","type":"uint256"}],"name":"getApproved","outputs":[{"internalType":"address","name":"","type":"address"}],"stateMutability":"view","type":"function"},{"inputs":[{"internalType":"address","name":"owner","type":"address"},{"internalType":"address","name":"operator","type":"address"}],"name":"isApprovedForAll","outputs":[{"internalType":"bool","name":"","type":"bool"}],"stateMutability":"view","type":"function"},{"inputs":[],"name":"name","outputs":[{"internalType":"string","name":"","type":"string"}],"stateMutability":"view","type":"function"},{"inputs":[],"name":"nextAgentId","outputs":[{"internalType":"uint256","name":"","type":"uint256"}],"stateMutability":"view","type":"function"},{"inputs":[{"internalType":"uint256","name":"tokenId","type":"uint256"}],"name":"ownerOf","outputs":[{"internalType":"address","name":"","type":"address"}],"stateMutability":"view","type":"function"},{"inputs":[{"internalType":"uint256","name":"agentId","type":"uint256"}],"name":"payAndCallAgent","outputs":[],"stateMutability":"payable","type":"function"},{"inputs":[{"internalType":"string","name":"name","type":"string"},{"internalType":"string","name":"description","type":"string"},{"internalType":"string","name":"tokenURI","type":"string"},{"internalType":"uint256","name":"serviceFee","type":"uint256"},{"internalType":"string[]","name":"capabilities","type":"string[]"}],"name":"registerAgent","outputs":[{"internalType":"uint256","name":"","type":"uint256"}],"stateMutability":"nonpayable","type":"function"},{"inputs":[{"internalType":"address","name":"from","type":"address"},{"internalType":"address","name":"to","type":"address"},{"internalType":"uint256","name":"tokenId","type":"uint256"}],"name":"safeTransferFrom","outputs":[],"stateMutability":"nonpayable","type":"function"},{"inputs":[{"internalType":"address","name":"from","type":"address"},{"internalType":"address","name":"to","type":"address"},{"internalType":"uint256","name":"tokenId","type":"uint256"},{"internalType":"bytes","name":"data","type":"bytes"}],"name":"safeTransferFrom","outputs":[],"stateMutability":"nonpayable","type":"function"},{"inputs":[{"internalType":"address","name":"operator","type":"address"},{"internalType":"bool","name":"approved","type":"bool"}],"name":"setApprovalForAll","outputs":[],"stateMutability":"nonpayable","type":"function"},{"inputs":[{"internalType":"bytes4","name":"interfaceId","type":"bytes4"}],"name":"supportsInterface","outputs":[{"internalType":"bool","name":"","type":"bool"}],"stateMutability":"view","type":"function"},{"inputs":[],"name":"symbol","outputs":[{"internalType":"string","name":"","type":"string"}],"stateMutability":"view","type":"function"},{"inputs":[{"internalType":"uint256","name":"agentId","type":"uint256"}],"name":"toggleAgentActive","outputs":[],"stateMutability":"nonpayable","type":"function"},{"inputs":[{"internalType":"uint256","name":"tokenId","type":"uint256"}],"name":"tokenURI","outputs":[{"internalType":"string","name":"","type":"string"}],"stateMutability":"view","type":"function"},{"inputs":[{"internalType":"address","name":"from","type":"address"},{"internalType":"address","name":"to","type":"address"},{"internalType":"uint256","name":"tokenId","type":"uint256"}],"name":"transferFrom","outputs":[],"stateMutability":"nonpayable","type":"function"},{"inputs":[{"internalType":"uint256","name":"agentId","type":"uint256"},{"internalType":"uint256","name":"newFee","type":"uint256"}],"name":"updateServiceFee","outputs":[],"stateMutability":"nonpayable","type":"function"}],"evm":{"bytecode":{"linkReferences":{},"object":"608060405234801562000010575f80fd5b506040518060400160405280601481526020017f4d6f6e6164204167656e74205265676973747279000000000000000000000000815250604051806040016040528060098152602001681353d38b5051d1539560ba1b815250815f90816200007991906200012f565b5060016200008882826200012f565b505050620001fb565b634e487b7160e01b5f52604160045260245ffd5b600181811c90821680620000ba57607f821691505b602082108103620000d957634e487b7160e01b5f52602260045260245ffd5b50919050565b601f8211156200012a57805f5260205f20601f840160051c81016020851015620001065750805b601f840160051c820191505b8181101562000127575f815560010162000112565b50505b505050565b81516001600160401b038111156200014b576200014b62000091565b62000163816200015c8454620000a5565b84620000df565b602080601f83116001811462000199575f8415620001815750858301515b5f19600386901b1c1916600185901b178555620001f3565b5f85815260208120601f198616915b82811015620001c957888601518255948401946001909101908401620001a8565b5085821015620001e757878501515f19600388901b60f8161c191681555b505060018460011b0185555b505050505050565b61219a80620002095f395ff3fe60806040526004361061011b575f3560e01c8063513856c81161009d578063966b0f6611610062578063966b0f661461032d578063a22cb4651461034c578063b88d4fde1461036b578063c87b56dd1461038a578063e985e9c5146103a9575f80fd5b8063513856c81461028b5780636352211e146102bc578063690535b0146102db57806370a08231146102fa57806395d89b4114610319575f80fd5b80632de5aaf7116100e35780632de5aaf7146101eb57806330efc4981461021757806332e085791461023a578063336523101461024d57806342842e0e1461026c575f80fd5b806301ffc9a71461011f57806306fdde0314610153578063081812fc14610174578063095ea7b3146101ab57806323b872dd146101cc575b5f80fd5b34801561012a575f80fd5b5061013e610139366004611a2c565b6103c8565b60405190151581526020015b60405180910390f35b34801561015e575f80fd5b506101676103f2565b60405161014a9190611a94565b34801561017f575f80fd5b5061019361018e366004611aa6565b610481565b6040516001600160a01b03909116815260200161014a565b3480156101b6575f80fd5b506101ca6101c5366004611ad8565b6104a8565b005b3480156101d7575f80fd5b506101ca6101e6366004611b00565b6104b7565b3480156101f6575f80fd5b5061020a610205366004611aa6565b610545565b60405161014a9190611b39565b348015610222575f80fd5b5061022c60075481565b60405190815260200161014a565b6101ca610248366004611aa6565b6107da565b348015610258575f80fd5b506101ca610267366004611c0e565b610b9a565b348015610277575f80fd5b506101ca610286366004611b00565b610c4c565b348015610296575f80fd5b506102aa6102a5366004611aa6565b610c6b565b60405161014a96959493929190611c2e565b3480156102c7575f80fd5b506101936102d6366004611aa6565b610db9565b3480156102e6575f80fd5b5061022c6102f5366004611d3c565b610dc3565b348015610305575f80fd5b5061022c610314366004611e68565b610f12565b348015610324575f80fd5b50610167610f57565b348015610338575f80fd5b506101ca610347366004611aa6565b610f66565b348015610357575f80fd5b506101ca610366366004611e81565b610ff3565b348015610376575f80fd5b506101ca610385366004611eba565b610ffe565b348015610395575f80fd5b506101676103a4366004611aa6565b611016565b3480156103b4575f80fd5b5061013e6103c3366004611f31565b611097565b5f6001600160e01b03198216632483248360e11b14806103ec57506103ec826110c4565b92915050565b60605f805461040090611f62565b80601f016020809104026020016040519081016040528092919081815260200182805461042c90611f62565b80156104775780601f1061044e57610100808354040283529160200191610477565b820191905f5260205f20905b81548152906001019060200180831161045a57829003601f168201915b5050505050905090565b5f61048b82611113565b505f828152600460205260409020546001600160a01b03166103ec565b6104b382823361114b565b5050565b6001600160a01b0382166104e557604051633250574960e11b81525f60048201526024015b60405180910390fd5b5f6104f1838333611158565b9050836001600160a01b0316816001600160a01b03161461053f576040516364283d7b60e01b81526001600160a01b03808616600483015260248201849052821660448201526064016104dc565b50505050565b61058c6040518060e001604052805f81526020015f6001600160a01b0316815260200160608152602001606081526020015f8152602001606081526020015f151581525090565b5f82815260086020908152604091829020825160e0810184528154815260018201546001600160a01b03169281019290925260028101805492939192918401916105d590611f62565b80601f016020809104026020016040519081016040528092919081815260200182805461060190611f62565b801561064c5780601f106106235761010080835404028352916020019161064c565b820191905f5260205f20905b81548152906001019060200180831161062f57829003601f168201915b5050505050815260200160038201805461066590611f62565b80601f016020809104026020016040519081016040528092919081815260200182805461069190611f62565b80156106dc5780601f106106b3576101008083540402835291602001916106dc565b820191905f5260205f20905b8154815290600101906020018083116106bf57829003601f168201915b505050505081526020016004820154815260200160058201805480602002602001604051908101604052809291908181526020015f905b828210156107bb578382905f5260205f2001805461073090611f62565b80601f016020809104026020016040519081016040528092919081815260200182805461075c90611f62565b80156107a75780601f1061077e576101008083540402835291602001916107a7565b820191905f5260205f20905b81548152906001019060200180831161078a57829003601f168201915b505050505081526020019060010190610713565b505050908252506006919091015460ff16151560209091015292915050565b5f818152600860209081526040808320815160e0810183528154815260018201546001600160a01b031693810193909352600281018054919284019161081f90611f62565b80601f016020809104026020016040519081016040528092919081815260200182805461084b90611f62565b80156108965780601f1061086d57610100808354040283529160200191610896565b820191905f5260205f20905b81548152906001019060200180831161087957829003601f168201915b505050505081526020016003820180546108af90611f62565b80601f01602080910402602001604051908101604052809291908181526020018280546108db90611f62565b80156109265780601f106108fd57610100808354040283529160200191610926565b820191905f5260205f20905b81548152906001019060200180831161090957829003601f168201915b505050505081526020016004820154815260200160058201805480602002602001604051908101604052809291908181526020015f905b82821015610a05578382905f5260205f2001805461097a90611f62565b80601f01602080910402602001604051908101604052809291908181526020018280546109a690611f62565b80156109f15780601f106109c8576101008083540402835291602001916109f1565b820191905f5260205f20905b8154815290600101906020018083116109d457829003601f168201915b50505050508152602001906001019061095d565b505050908252506006919091015460ff16151560209091015260c0810151909150610a665760405162461bcd60e51b81526020600482015260116024820152704167656e7420697320696e61637469766560781b60448201526064016104dc565b8060800151341015610aba5760405162461bcd60e51b815260206004820152601d60248201527f496e73756666696369656e742073657276696365206665652073656e7400000060448201526064016104dc565b608081015115610b5f575f81602001516001600160a01b0316346040515f6040518083038185875af1925050503d805f8114610b11576040519150601f19603f3d011682016040523d82523d5f602084013e610b16565b606091505b5050905080610b5d5760405162461bcd60e51b8152602060048201526013602482015272151c985b9cd9995c881999594819985a5b1959606a1b60448201526064016104dc565b505b604051348152339083907f4aaba6099eb20f6af209c4bf785ff01746afd56a22c08d54e9936538510c5afc9060200160405180910390a35050565b33610ba483610db9565b6001600160a01b031614610bfa5760405162461bcd60e51b815260206004820152601f60248201527f4f6e6c79206167656e74206f776e65722063616e20757064617465206665650060448201526064016104dc565b5f82815260086020526040908190206004018290555182907e3b413cf14a67407425bd0b5c065b2de08876554d8489ad7dd4aa95604d280c90610c409084815260200190565b60405180910390a25050565b610c6683838360405180602001604052805f815250610ffe565b505050565b60086020525f908152604090208054600182015460028301805492936001600160a01b0390921692610c9c90611f62565b80601f0160208091040260200160405190810160405280929190818152602001828054610cc890611f62565b8015610d135780601f10610cea57610100808354040283529160200191610d13565b820191905f5260205f20905b815481529060010190602001808311610cf657829003601f168201915b505050505090806003018054610d2890611f62565b80601f0160208091040260200160405190810160405280929190818152602001828054610d5490611f62565b8015610d9f5780601f10610d7657610100808354040283529160200191610d9f565b820191905f5260205f20905b815481529060010190602001808311610d8257829003601f168201915b50505050600483015460069093015491929160ff16905086565b5f6103ec82611113565b6007545f90610dd2338261124a565b610ddc8186611263565b6040805160e0810182528281523360208083019182528284018b8152606084018b90526080840189905260a08401889052600160c085018190525f87815260089093529490912083518155915193820180546001600160a01b0319166001600160a01b039095169490941790935591519091906002820190610e5e9082611fde565b5060608201516003820190610e739082611fde565b506080820151600482015560a08201518051610e99916005840191602090910190611959565b5060c091909101516006909101805460ff1916911515919091179055604051339082907fc29f819ac362ff9c94de06666235808451aafd8894a2dffb86a080a965efeae390610eeb908b90899061209a565b60405180910390a360078054905f610f02836120bb565b9091555090979650505050505050565b5f6001600160a01b038216610f3c576040516322718ad960e21b81525f60048201526024016104dc565b506001600160a01b03165f9081526003602052604090205490565b60606001805461040090611f62565b33610f7082610db9565b6001600160a01b031614610fd15760405162461bcd60e51b815260206004820152602260248201527f4f6e6c79206167656e74206f776e65722063616e20746f67676c652073746174604482015261757360f01b60648201526084016104dc565b5f908152600860205260409020600601805460ff19811660ff90911615179055565b6104b33383836112b2565b6110098484846104b7565b61053f3385858585611379565b606061102182611113565b505f61103760408051602081019091525f815290565b90505f611043846114a1565b905081515f03611054579392505050565b80511561108657818160405160200161106e9291906120df565b60405160208183030381529060405292505050919050565b61108f84611540565b949350505050565b6001600160a01b039182165f90815260056020908152604080832093909416825291909152205460ff1690565b5f6001600160e01b031982166380ac58cd60e01b14806110f457506001600160e01b03198216635b5e139f60e01b145b806103ec57506301ffc9a760e01b6001600160e01b03198316146103ec565b5f818152600260205260408120546001600160a01b0316806103ec57604051637e27328960e01b8152600481018490526024016104dc565b610c6683838360016115b1565b5f828152600260205260408120546001600160a01b0390811690831615611184576111848184866116b5565b6001600160a01b038116156111be5761119f5f855f806115b1565b6001600160a01b0381165f90815260036020526040902080545f190190555b6001600160a01b038516156111ec576001600160a01b0385165f908152600360205260409020805460010190555b5f8481526002602052604080822080546001600160a01b0319166001600160a01b0389811691821790925591518793918516917fddf252ad1be2c89b69c2b068fc378daa952ba7f163c4a11628f55a4df523b3ef91a4949350505050565b6104b3828260405180602001604052805f815250611719565b5f82815260066020526040902061127a8282611fde565b506040518281527ff8e1a15aba9398e019f0b49df1a4fde98ee17ae345cb5f6b5e2c27f5033e8ce79060200160405180910390a15050565b6001600160a01b0383166112db5760405163a9fbf51f60e01b81525f60048201526024016104dc565b6001600160a01b03821661130d57604051630b61174360e31b81526001600160a01b03831660048201526024016104dc565b6001600160a01b038381165f81815260056020908152604080832094871680845294825291829020805460ff191686151590811790915591519182527f17307eab39ab6107e8899845ad3d59bd9653f200f220920489ca2b5937696c31910160405180910390a3505050565b6001600160a01b0383163b1561149a57604051630a85bd0160e11b81526001600160a01b0384169063150b7a02906113bb90889088908790879060040161210d565b6020604051808303815f875af19250505080156113f5575060408051601f3d908101601f191682019092526113f291810190612149565b60015b61145c573d808015611422576040519150601f19603f3d011682016040523d82523d5f602084013e611427565b606091505b5080515f0361145457604051633250574960e11b81526001600160a01b03851660048201526024016104dc565b805160208201fd5b6001600160e01b03198116630a85bd0160e11b1461149857604051633250574960e11b81526001600160a01b03851660048201526024016104dc565b505b5050505050565b5f8181526006602052604090208054606091906114bd90611f62565b80601f01602080910402602001604051908101604052809291908181526020018280546114e990611f62565b80156115345780601f1061150b57610100808354040283529160200191611534565b820191905f5260205f20905b81548152906001019060200180831161151757829003601f168201915b50505050509050919050565b606061154b82611113565b505f61156160408051602081019091525f815290565b90505f81511161157f5760405180602001604052805f8152506115aa565b8061158984611730565b60405160200161159a9291906120df565b6040516020818303038152906040525b9392505050565b80806115c557506001600160a01b03821615155b15611686575f6115d484611113565b90506001600160a01b038316158015906116005750826001600160a01b0316816001600160a01b031614155b801561161357506116118184611097565b155b1561163c5760405163a9fbf51f60e01b81526001600160a01b03841660048201526024016104dc565b81156116845783856001600160a01b0316826001600160a01b03167f8c5be1e5ebec7d5bd14f71427d1e84f3dd0314c0f7b2291e5b200ac8c7c3b92560405160405180910390a45b505b50505f90815260046020526040902080546001600160a01b0319166001600160a01b0392909216919091179055565b6116c08383836117c0565b610c66576001600160a01b0383166116ee57604051637e27328960e01b8152600481018290526024016104dc565b60405163177e802f60e01b81526001600160a01b0383166004820152602481018290526044016104dc565b6117238383611821565b610c66335f858585611379565b60605f61173c83611882565b60010190505f8167ffffffffffffffff81111561175b5761175b611c84565b6040519080825280601f01601f191660200182016040528015611785576020820181803683370190505b5090508181016020015b5f19016f181899199a1a9b1b9c1cb0b131b232b360811b600a86061a8153600a850494508461178f57509392505050565b5f6001600160a01b0383161580159061108f5750826001600160a01b0316846001600160a01b031614806117f957506117f98484611097565b8061108f5750505f908152600460205260409020546001600160a01b03908116911614919050565b6001600160a01b03821661184a57604051633250574960e11b81525f60048201526024016104dc565b5f61185683835f611158565b90506001600160a01b03811615610c66576040516339e3563760e11b81525f60048201526024016104dc565b5f8072184f03e93ff9f4daa797ed6e38ed64bf6a1f0160401b83106118c05772184f03e93ff9f4daa797ed6e38ed64bf6a1f0160401b830492506040015b6d04ee2d6d415b85acef810000000083106118ec576d04ee2d6d415b85acef8100000000830492506020015b662386f26fc10000831061190a57662386f26fc10000830492506010015b6305f5e1008310611922576305f5e100830492506008015b612710831061193657612710830492506004015b60648310611948576064830492506002015b600a83106103ec5760010192915050565b828054828255905f5260205f2090810192821561199d579160200282015b8281111561199d578251829061198d9082611fde565b5091602001919060010190611977565b506119a99291506119ad565b5090565b808211156119a9575f6119c082826119c9565b506001016119ad565b5080546119d590611f62565b5f825580601f106119e4575050565b601f0160209004905f5260205f2090810190611a009190611a03565b50565b5b808211156119a9575f8155600101611a04565b6001600160e01b031981168114611a00575f80fd5b5f60208284031215611a3c575f80fd5b81356115aa81611a17565b5f5b83811015611a61578181015183820152602001611a49565b50505f910152565b5f8151808452611a80816020860160208601611a47565b601f01601f19169290920160200192915050565b602081525f6115aa6020830184611a69565b5f60208284031215611ab6575f80fd5b5035919050565b80356001600160a01b0381168114611ad3575f80fd5b919050565b5f8060408385031215611ae9575f80fd5b611af283611abd565b946020939093013593505050565b5f805f60608486031215611b12575f80fd5b611b1b84611abd565b9250611b2960208501611abd565b9150604084013590509250925092565b5f602080835283518184015260018060a01b0381850151166040840152604084015160e06060850152611b70610100850182611a69565b90506060850151601f1980868403016080870152611b8e8383611a69565b9250608087015160a087015260a08701519150808684030160c08701528282518085528585019150858160051b86010186850194505f5b82811015611bf15784878303018452611bdf828751611a69565b95880195938801939150600101611bc5565b5060c08a015180151560e08b015296509998505050505050505050565b5f8060408385031215611c1f575f80fd5b50508035926020909101359150565b8681526001600160a01b038616602082015260c0604082018190525f90611c5790830187611a69565b8281036060840152611c698187611a69565b6080840195909552505090151560a090910152949350505050565b634e487b7160e01b5f52604160045260245ffd5b604051601f8201601f1916810167ffffffffffffffff81118282101715611cc157611cc1611c84565b604052919050565b5f67ffffffffffffffff831115611ce257611ce2611c84565b611cf5601f8401601f1916602001611c98565b9050828152838383011115611d08575f80fd5b828260208301375f602084830101529392505050565b5f82601f830112611d2d575f80fd5b6115aa83833560208501611cc9565b5f805f805f60a08688031215611d50575f80fd5b853567ffffffffffffffff80821115611d67575f80fd5b611d7389838a01611d1e565b9650602091508188013581811115611d89575f80fd5b611d958a828b01611d1e565b965050604088013581811115611da9575f80fd5b611db58a828b01611d1e565b95505060608801359350608088013581811115611dd0575f80fd5b8801601f81018a13611de0575f80fd5b803582811115611df257611df2611c84565b8060051b611e01858201611c98565b918252828101850191858101908d841115611e1a575f80fd5b86850192505b83831015611e5457823586811115611e36575f80fd5b611e448f8983890101611d1e565b8352509186019190860190611e20565b809750505050505050509295509295909350565b5f60208284031215611e78575f80fd5b6115aa82611abd565b5f8060408385031215611e92575f80fd5b611e9b83611abd565b915060208301358015158114611eaf575f80fd5b809150509250929050565b5f805f8060808587031215611ecd575f80fd5b611ed685611abd565b9350611ee460208601611abd565b925060408501359150606085013567ffffffffffffffff811115611f06575f80fd5b8501601f81018713611f16575f80fd5b611f2587823560208401611cc9565b91505092959194509250565b5f8060408385031215611f42575f80fd5b611f4b83611abd565b9150611f5960208401611abd565b90509250929050565b600181811c90821680611f7657607f821691505b602082108103611f9457634e487b7160e01b5f52602260045260245ffd5b50919050565b601f821115610c6657805f5260205f20601f840160051c81016020851015611fbf5750805b601f840160051c820191505b8181101561149a575f8155600101611fcb565b815167ffffffffffffffff811115611ff857611ff8611c84565b61200c816120068454611f62565b84611f9a565b602080601f83116001811461203f575f84156120285750858301515b5f19600386901b1c1916600185901b178555611498565b5f85815260208120601f198616915b8281101561206d5788860151825594840194600190910190840161204e565b508582101561208a57878501515f19600388901b60f8161c191681555b5050505050600190811b01905550565b604081525f6120ac6040830185611a69565b90508260208301529392505050565b5f600182016120d857634e487b7160e01b5f52601160045260245ffd5b5060010190565b5f83516120f0818460208801611a47565b835190830190612104818360208801611a47565b01949350505050565b6001600160a01b03858116825284166020820152604081018390526080606082018190525f9061213f90830184611a69565b9695505050505050565b5f60208284031215612159575f80fd5b81516115aa81611a1756fea26469706673582212201ec4eeb4ba37bd7a20cbca9eaf7ac4ef6bc4e803e742eb507dc4eb9e477c7e4864736f6c63430008180033","opcodes":"PUSH1 0x80 PUSH1 0x40 MSTORE CALLVALUE DUP1 ISZERO PUSH3 0x10 JUMPI PUSH0 DUP1 REVERT JUMPDEST POP PUSH1 0x40 MLOAD DUP1 PUSH1 0x40 ADD PUSH1 0x40 MSTORE DUP1 PUSH1 0x14 DUP2 MSTORE PUSH1 0x20 ADD PUSH32 0x4D6F6E6164204167656E74205265676973747279000000000000000000000000 DUP2 MSTORE POP PUSH1 0x40 MLOAD DUP1 PUSH1 0x40 ADD PUSH1 0x40 MSTORE DUP1 PUSH1 0x9 DUP2 MSTORE PUSH1 0x20 ADD PUSH9 0x1353D38B5051D15395 PUSH1 0xBA SHL DUP2 MSTORE POP DUP2 PUSH0 SWAP1 DUP2 PUSH3 0x79 SWAP2 SWAP1 PUSH3 0x12F JUMP JUMPDEST POP PUSH1 0x1 PUSH3 0x88 DUP3 DUP3 PUSH3 0x12F JUMP JUMPDEST POP POP POP PUSH3 0x1FB JUMP JUMPDEST PUSH4 0x4E487B71 PUSH1 0xE0 SHL PUSH0 MSTORE PUSH1 0x41 PUSH1 0x4 MSTORE PUSH1 0x24 PUSH0 REVERT JUMPDEST PUSH1 0x1 DUP2 DUP2 SHR SWAP1 DUP3 AND DUP1 PUSH3 0xBA JUMPI PUSH1 0x7F DUP3 AND SWAP2 POP JUMPDEST PUSH1 0x20 DUP3 LT DUP2 SUB PUSH3 0xD9 JUMPI PUSH4 0x4E487B71 PUSH1 0xE0 SHL PUSH0 MSTORE PUSH1 0x22 PUSH1 0x4 MSTORE PUSH1 0x24 PUSH0 REVERT JUMPDEST POP SWAP2 SWAP1 POP JUMP JUMPDEST PUSH1 0x1F DUP3 GT ISZERO PUSH3 0x12A JUMPI DUP1 PUSH0 MSTORE PUSH1 0x20 PUSH0 KECCAK256 PUSH1 0x1F DUP5 ADD PUSH1 0x5 SHR DUP2 ADD PUSH1 0x20 DUP6 LT ISZERO PUSH3 0x106 JUMPI POP DUP1 JUMPDEST PUSH1 0x1F DUP5 ADD PUSH1 0x5 SHR DUP3 ADD SWAP2 POP JUMPDEST DUP2 DUP2 LT ISZERO PUSH3 0x127 JUMPI PUSH0 DUP2 SSTORE PUSH1 0x1 ADD PUSH3 0x112 JUMP JUMPDEST POP POP JUMPDEST POP POP POP JUMP JUMPDEST DUP2 MLOAD PUSH1 0x1 PUSH1 0x1 PUSH1 0x40 SHL SUB DUP2 GT ISZERO PUSH3 0x14B JUMPI PUSH3 0x14B PUSH3 0x91 JUMP JUMPDEST PUSH3 0x163 DUP2 PUSH3 0x15C DUP5 SLOAD PUSH3 0xA5 JUMP JUMPDEST DUP5 PUSH3 0xDF JUMP JUMPDEST PUSH1 0x20 DUP1 PUSH1 0x1F DUP4 GT PUSH1 0x1 DUP2 EQ PUSH3 0x199 JUMPI PUSH0 DUP5 ISZERO PUSH3 0x181 JUMPI POP DUP6 DUP4 ADD MLOAD JUMPDEST PUSH0 NOT PUSH1 0x3 DUP7 SWAP1 SHL SHR NOT AND PUSH1 0x1 DUP6 SWAP1 SHL OR DUP6 SSTORE PUSH3 0x1F3 JUMP JUMPDEST PUSH0 DUP6 DUP2 MSTORE PUSH1 0x20 DUP2 KECCAK256 PUSH1 0x1F NOT DUP7 AND SWAP2 JUMPDEST DUP3 DUP2 LT ISZERO PUSH3 0x1C9 JUMPI DUP9 DUP7 ADD MLOAD DUP3 SSTORE SWAP5 DUP5 ADD SWAP5 PUSH1 0x1 SWAP1 SWAP2 ADD SWAP1 DUP5 ADD PUSH3 0x1A8 JUMP JUMPDEST POP DUP6 DUP3 LT ISZERO PUSH3 0x1E7 JUMPI DUP8 DUP6 ADD MLOAD PUSH0 NOT PUSH1 0x3 DUP9 SWAP1 SHL PUSH1 0xF8 AND SHR NOT AND DUP2 SSTORE JUMPDEST POP POP PUSH1 0x1 DUP5 PUSH1 0x1 SHL ADD DUP6 SSTORE JUMPDEST POP POP POP POP POP POP JUMP JUMPDEST PUSH2 0x219A DUP1 PUSH3 0x209 PUSH0 CODECOPY PUSH0 RETURN INVALID PUSH1 0x80 PUSH1 0x40 MSTORE PUSH1 0x4 CALLDATASIZE LT PUSH2 0x11B JUMPI PUSH0 CALLDATALOAD PUSH1 0xE0 SHR DUP1 PUSH4 0x513856C8 GT PUSH2 0x9D JUMPI DUP1 PUSH4 0x966B0F66 GT PUSH2 0x62 JUMPI DUP1 PUSH4 0x966B0F66 EQ PUSH2 0x32D JUMPI DUP1 PUSH4 0xA22CB465 EQ PUSH2 0x34C JUMPI DUP1 PUSH4 0xB88D4FDE EQ PUSH2 0x36B JUMPI DUP1 PUSH4 0xC87B56DD EQ PUSH2 0x38A JUMPI DUP1 PUSH4 0xE985E9C5 EQ PUSH2 0x3A9 JUMPI PUSH0 DUP1 REVERT JUMPDEST DUP1 PUSH4 0x513856C8 EQ PUSH2 0x28B JUMPI DUP1 PUSH4 0x6352211E EQ PUSH2 0x2BC JUMPI DUP1 PUSH4 0x690535B0 EQ PUSH2 0x2DB JUMPI DUP1 PUSH4 0x70A08231 EQ PUSH2 0x2FA JUMPI DUP1 PUSH4 0x95D89B41 EQ PUSH2 0x319 JUMPI PUSH0 DUP1 REVERT JUMPDEST DUP1 PUSH4 0x2DE5AAF7 GT PUSH2 0xE3 JUMPI DUP1 PUSH4 0x2DE5AAF7 EQ PUSH2 0x1EB JUMPI DUP1 PUSH4 0x30EFC498 EQ PUSH2 0x217 JUMPI DUP1 PUSH4 0x32E08579 EQ PUSH2 0x23A JUMPI DUP1 PUSH4 0x33652310 EQ PUSH2 0x24D JUMPI DUP1 PUSH4 0x42842E0E EQ PUSH2 0x26C JUMPI PUSH0 DUP1 REVERT JUMPDEST DUP1 PUSH4 0x1FFC9A7 EQ PUSH2 0x11F JUMPI DUP1 PUSH4 0x6FDDE03 EQ PUSH2 0x153 JUMPI DUP1 PUSH4 0x81812FC EQ PUSH2 0x174 JUMPI DUP1 PUSH4 0x95EA7B3 EQ PUSH2 0x1AB JUMPI DUP1 PUSH4 0x23B872DD EQ PUSH2 0x1CC JUMPI JUMPDEST PUSH0 DUP1 REVERT JUMPDEST CALLVALUE DUP1 ISZERO PUSH2 0x12A JUMPI PUSH0 DUP1 REVERT JUMPDEST POP PUSH2 0x13E PUSH2 0x139 CALLDATASIZE PUSH1 0x4 PUSH2 0x1A2C JUMP JUMPDEST PUSH2 0x3C8 JUMP JUMPDEST PUSH1 0x40 MLOAD SWAP1 ISZERO ISZERO DUP2 MSTORE PUSH1 0x20 ADD JUMPDEST PUSH1 0x40 MLOAD DUP1 SWAP2 SUB SWAP1 RETURN JUMPDEST CALLVALUE DUP1 ISZERO PUSH2 0x15E JUMPI PUSH0 DUP1 REVERT JUMPDEST POP PUSH2 0x167 PUSH2 0x3F2 JUMP JUMPDEST PUSH1 0x40 MLOAD PUSH2 0x14A SWAP2 SWAP1 PUSH2 0x1A94 JUMP JUMPDEST CALLVALUE DUP1 ISZERO PUSH2 0x17F JUMPI PUSH0 DUP1 REVERT JUMPDEST POP PUSH2 0x193 PUSH2 0x18E CALLDATASIZE PUSH1 0x4 PUSH2 0x1AA6 JUMP JUMPDEST PUSH2 0x481 JUMP JUMPDEST PUSH1 0x40 MLOAD PUSH1 0x1 PUSH1 0x1 PUSH1 0xA0 SHL SUB SWAP1 SWAP2 AND DUP2 MSTORE PUSH1 0x20 ADD PUSH2 0x14A JUMP JUMPDEST CALLVALUE DUP1 ISZERO PUSH2 0x1B6 JUMPI PUSH0 DUP1 REVERT JUMPDEST POP PUSH2 0x1CA PUSH2 0x1C5 CALLDATASIZE PUSH1 0x4 PUSH2 0x1AD8 JUMP JUMPDEST PUSH2 0x4A8 JUMP JUMPDEST STOP JUMPDEST CALLVALUE DUP1 ISZERO PUSH2 0x1D7 JUMPI PUSH0 DUP1 REVERT JUMPDEST POP PUSH2 0x1CA PUSH2 0x1E6 CALLDATASIZE PUSH1 0x4 PUSH2 0x1B00 JUMP JUMPDEST PUSH2 0x4B7 JUMP JUMPDEST CALLVALUE DUP1 ISZERO PUSH2 0x1F6 JUMPI PUSH0 DUP1 REVERT JUMPDEST POP PUSH2 0x20A PUSH2 0x205 CALLDATASIZE PUSH1 0x4 PUSH2 0x1AA6 JUMP JUMPDEST PUSH2 0x545 JUMP JUMPDEST PUSH1 0x40 MLOAD PUSH2 0x14A SWAP2 SWAP1 PUSH2 0x1B39 JUMP JUMPDEST CALLVALUE DUP1 ISZERO PUSH2 0x222 JUMPI PUSH0 DUP1 REVERT JUMPDEST POP PUSH2 0x22C PUSH1 0x7 SLOAD DUP2 JUMP JUMPDEST PUSH1 0x40 MLOAD SWAP1 DUP2 MSTORE PUSH1 0x20 ADD PUSH2 0x14A JUMP JUMPDEST PUSH2 0x1CA PUSH2 0x248 CALLDATASIZE PUSH1 0x4 PUSH2 0x1AA6 JUMP JUMPDEST PUSH2 0x7DA JUMP JUMPDEST CALLVALUE DUP1 ISZERO PUSH2 0x258 JUMPI PUSH0 DUP1 REVERT JUMPDEST POP PUSH2 0x1CA PUSH2 0x267 CALLDATASIZE PUSH1 0x4 PUSH2 0x1C0E JUMP JUMPDEST PUSH2 0xB9A JUMP JUMPDEST CALLVALUE DUP1 ISZERO PUSH2 0x277 JUMPI PUSH0 DUP1 REVERT JUMPDEST POP PUSH2 0x1CA PUSH2 0x286 CALLDATASIZE PUSH1 0x4 PUSH2 0x1B00 JUMP JUMPDEST PUSH2 0xC4C JUMP JUMPDEST CALLVALUE DUP1 ISZERO PUSH2 0x296 JUMPI PUSH0 DUP1 REVERT JUMPDEST POP PUSH2 0x2AA PUSH2 0x2A5 CALLDATASIZE PUSH1 0x4 PUSH2 0x1AA6 JUMP JUMPDEST PUSH2 0xC6B JUMP JUMPDEST PUSH1 0x40 MLOAD PUSH2 0x14A SWAP7 SWAP6 SWAP5 SWAP4 SWAP3 SWAP2 SWAP1 PUSH2 0x1C2E JUMP JUMPDEST CALLVALUE DUP1 ISZERO PUSH2 0x2C7 JUMPI PUSH0 DUP1 REVERT JUMPDEST POP PUSH2 0x193 PUSH2 0x2D6 CALLDATASIZE PUSH1 0x4 PUSH2 0x1AA6 JUMP JUMPDEST PUSH2 0xDB9 JUMP JUMPDEST CALLVALUE DUP1 ISZERO PUSH2 0x2E6 JUMPI PUSH0 DUP1 REVERT JUMPDEST POP PUSH2 0x22C PUSH2 0x2F5 CALLDATASIZE PUSH1 0x4 PUSH2 0x1D3C JUMP JUMPDEST PUSH2 0xDC3 JUMP JUMPDEST CALLVALUE DUP1 ISZERO PUSH2 0x305 JUMPI PUSH0 DUP1 REVERT JUMPDEST POP PUSH2 0x22C PUSH2 0x314 CALLDATASIZE PUSH1 0x4 PUSH2 0x1E68 JUMP JUMPDEST PUSH2 0xF12 JUMP JUMPDEST CALLVALUE DUP1 ISZERO PUSH2 0x324 JUMPI PUSH0 DUP1 REVERT JUMPDEST POP PUSH2 0x167 PUSH2 0xF57 JUMP JUMPDEST CALLVALUE DUP1 ISZERO PUSH2 0x338 JUMPI PUSH0 DUP1 REVERT JUMPDEST POP PUSH2 0x1CA PUSH2 0x347 CALLDATASIZE PUSH1 0x4 PUSH2 0x1AA6 JUMP JUMPDEST PUSH2 0xF66 JUMP JUMPDEST CALLVALUE DUP1 ISZERO PUSH2 0x357 JUMPI PUSH0 DUP1 REVERT JUMPDEST POP PUSH2 0x1CA PUSH2 0x366 CALLDATASIZE PUSH1 0x4 PUSH2 0x1E81 JUMP JUMPDEST PUSH2 0xFF3 JUMP JUMPDEST CALLVALUE DUP1 ISZERO PUSH2 0x376 JUMPI PUSH0 DUP1 REVERT JUMPDEST POP PUSH2 0x1CA PUSH2 0x385 CALLDATASIZE PUSH1 0x4 PUSH2 0x1EBA JUMP JUMPDEST PUSH2 0xFFE JUMP JUMPDEST CALLVALUE DUP1 ISZERO PUSH2 0x395 JUMPI PUSH0 DUP1 REVERT JUMPDEST POP PUSH2 0x167 PUSH2 0x3A4 CALLDATASIZE PUSH1 0x4 PUSH2 0x1AA6 JUMP JUMPDEST PUSH2 0x1016 JUMP JUMPDEST CALLVALUE DUP1 ISZERO PUSH2 0x3B4 JUMPI PUSH0 DUP1 REVERT JUMPDEST POP PUSH2 0x13E PUSH2 0x3C3 CALLDATASIZE PUSH1 0x4 PUSH2 0x1F31 JUMP JUMPDEST PUSH2 0x1097 JUMP JUMPDEST PUSH0 PUSH1 0x1 PUSH1 0x1 PUSH1 0xE0 SHL SUB NOT DUP3 AND PUSH4 0x24832483 PUSH1 0xE1 SHL EQ DUP1 PUSH2 0x3EC JUMPI POP PUSH2 0x3EC DUP3 PUSH2 0x10C4 JUMP JUMPDEST SWAP3 SWAP2 POP POP JUMP JUMPDEST PUSH1 0x60 PUSH0 DUP1 SLOAD PUSH2 0x400 SWAP1 PUSH2 0x1F62 JUMP JUMPDEST DUP1 PUSH1 0x1F ADD PUSH1 0x20 DUP1 SWAP2 DIV MUL PUSH1 0x20 ADD PUSH1 0x40 MLOAD SWAP1 DUP2 ADD PUSH1 0x40 MSTORE DUP1 SWAP3 SWAP2 SWAP1 DUP2 DUP2 MSTORE PUSH1 0x20 ADD DUP3 DUP1 SLOAD PUSH2 0x42C SWAP1 PUSH2 0x1F62 JUMP JUMPDEST DUP1 ISZERO PUSH2 0x477 JUMPI DUP1 PUSH1 0x1F LT PUSH2 0x44E JUMPI PUSH2 0x100 DUP1 DUP4 SLOAD DIV MUL DUP4 MSTORE SWAP2 PUSH1 0x20 ADD SWAP2 PUSH2 0x477 JUMP JUMPDEST DUP3 ADD SWAP2 SWAP1 PUSH0 MSTORE PUSH1 0x20 PUSH0 KECCAK256 SWAP1 JUMPDEST DUP2 SLOAD DUP2 MSTORE SWAP1 PUSH1 0x1 ADD SWAP1 PUSH1 0x20 ADD DUP1 DUP4 GT PUSH2 0x45A JUMPI DUP3 SWAP1 SUB PUSH1 0x1F AND DUP3 ADD SWAP2 JUMPDEST POP POP POP POP POP SWAP1 POP SWAP1 JUMP JUMPDEST PUSH0 PUSH2 0x48B DUP3 PUSH2 0x1113 JUMP JUMPDEST POP PUSH0 DUP3 DUP2 MSTORE PUSH1 0x4 PUSH1 0x20 MSTORE PUSH1 0x40 SWAP1 KECCAK256 SLOAD PUSH1 0x1 PUSH1 0x1 PUSH1 0xA0 SHL SUB AND PUSH2 0x3EC JUMP JUMPDEST PUSH2 0x4B3 DUP3 DUP3 CALLER PUSH2 0x114B JUMP JUMPDEST POP POP JUMP JUMPDEST PUSH1 0x1 PUSH1 0x1 PUSH1 0xA0 SHL SUB DUP3 AND PUSH2 0x4E5 JUMPI PUSH1 0x40 MLOAD PUSH4 0x32505749 PUSH1 0xE1 SHL DUP2 MSTORE PUSH0 PUSH1 0x4 DUP3 ADD MSTORE PUSH1 0x24 ADD JUMPDEST PUSH1 0x40 MLOAD DUP1 SWAP2 SUB SWAP1 REVERT JUMPDEST PUSH0 PUSH2 0x4F1 DUP4 DUP4 CALLER PUSH2 0x1158 JUMP JUMPDEST SWAP1 POP DUP4 PUSH1 0x1 PUSH1 0x1 PUSH1 0xA0 SHL SUB AND DUP2 PUSH1 0x1 PUSH1 0x1 PUSH1 0xA0 SHL SUB AND EQ PUSH2 0x53F JUMPI PUSH1 0x40 MLOAD PUSH4 0x64283D7B PUSH1 0xE0 SHL DUP2 MSTORE PUSH1 0x1 PUSH1 0x1 PUSH1 0xA0 SHL SUB DUP1 DUP7 AND PUSH1 0x4 DUP4 ADD MSTORE PUSH1 0x24 DUP3 ADD DUP5 SWAP1 MSTORE DUP3 AND PUSH1 0x44 DUP3 ADD MSTORE PUSH1 0x64 ADD PUSH2 0x4DC JUMP JUMPDEST POP POP POP POP JUMP JUMPDEST PUSH2 0x58C PUSH1 0x40 MLOAD DUP1 PUSH1 0xE0 ADD PUSH1 0x40 MSTORE DUP1 PUSH0 DUP2 MSTORE PUSH1 0x20 ADD PUSH0 PUSH1 0x1 PUSH1 0x1 PUSH1 0xA0 SHL SUB AND DUP2 MSTORE PUSH1 0x20 ADD PUSH1 0x60 DUP2 MSTORE PUSH1 0x20 ADD PUSH1 0x60 DUP2 MSTORE PUSH1 0x20 ADD PUSH0 DUP2 MSTORE PUSH1 0x20 ADD PUSH1 0x60 DUP2 MSTORE PUSH1 0x20 ADD PUSH0 ISZERO ISZERO DUP2 MSTORE POP SWAP1 JUMP JUMPDEST PUSH0 DUP3 DUP2 MSTORE PUSH1 0x8 PUSH1 0x20 SWAP1 DUP2 MSTORE PUSH1 0x40 SWAP2 DUP3 SWAP1 KECCAK256 DUP3 MLOAD PUSH1 0xE0 DUP2 ADD DUP5 MSTORE DUP2 SLOAD DUP2 MSTORE PUSH1 0x1 DUP3 ADD SLOAD PUSH1 0x1 PUSH1 0x1 PUSH1 0xA0 SHL SUB AND SWAP3 DUP2 ADD SWAP3 SWAP1 SWAP3 MSTORE PUSH1 0x2 DUP2 ADD DUP1 SLOAD SWAP3 SWAP4 SWAP2 SWAP3 SWAP2 DUP5 ADD SWAP2 PUSH2 0x5D5 SWAP1 PUSH2 0x1F62 JUMP JUMPDEST DUP1 PUSH1 0x1F ADD PUSH1 0x20 DUP1 SWAP2 DIV MUL PUSH1 0x20 ADD PUSH1 0x40 MLOAD SWAP1 DUP2 ADD PUSH1 0x40 MSTORE DUP1 SWAP3 SWAP2 SWAP1 DUP2 DUP2 MSTORE PUSH1 0x20 ADD DUP3 DUP1 SLOAD PUSH2 0x601 SWAP1 PUSH2 0x1F62 JUMP JUMPDEST DUP1 ISZERO PUSH2 0x64C JUMPI DUP1 PUSH1 0x1F LT PUSH2 0x623 JUMPI PUSH2 0x100 DUP1 DUP4 SLOAD DIV MUL DUP4 MSTORE SWAP2 PUSH1 0x20 ADD SWAP2 PUSH2 0x64C JUMP JUMPDEST DUP3 ADD SWAP2 SWAP1 PUSH0 MSTORE PUSH1 0x20 PUSH0 KECCAK256 SWAP1 JUMPDEST DUP2 SLOAD DUP2 MSTORE SWAP1 PUSH1 0x1 ADD SWAP1 PUSH1 0x20 ADD DUP1 DUP4 GT PUSH2 0x62F JUMPI DUP3 SWAP1 SUB PUSH1 0x1F AND DUP3 ADD SWAP2 JUMPDEST POP POP POP POP POP DUP2 MSTORE PUSH1 0x20 ADD PUSH1 0x3 DUP3 ADD DUP1 SLOAD PUSH2 0x665 SWAP1 PUSH2 0x1F62 JUMP JUMPDEST DUP1 PUSH1 0x1F ADD PUSH1 0x20 DUP1 SWAP2 DIV MUL PUSH1 0x20 ADD PUSH1 0x40 MLOAD SWAP1 DUP2 ADD PUSH1 0x40 MSTORE DUP1 SWAP3 SWAP2 SWAP1 DUP2 DUP2 MSTORE PUSH1 0x20 ADD DUP3 DUP1 SLOAD PUSH2 0x691 SWAP1 PUSH2 0x1F62 JUMP JUMPDEST DUP1 ISZERO PUSH2 0x6DC JUMPI DUP1 PUSH1 0x1F LT PUSH2 0x6B3 JUMPI PUSH2 0x100 DUP1 DUP4 SLOAD DIV MUL DUP4 MSTORE SWAP2 PUSH1 0x20 ADD SWAP2 PUSH2 0x6DC JUMP JUMPDEST DUP3 ADD SWAP2 SWAP1 PUSH0 MSTORE PUSH1 0x20 PUSH0 KECCAK256 SWAP1 JUMPDEST DUP2 SLOAD DUP2 MSTORE SWAP1 PUSH1 0x1 ADD SWAP1 PUSH1 0x20 ADD DUP1 DUP4 GT PUSH2 0x6BF JUMPI DUP3 SWAP1 SUB PUSH1 0x1F AND DUP3 ADD SWAP2 JUMPDEST POP POP POP POP POP DUP2 MSTORE PUSH1 0x20 ADD PUSH1 0x4 DUP3 ADD SLOAD DUP2 MSTORE PUSH1 0x20 ADD PUSH1 0x5 DUP3 ADD DUP1 SLOAD DUP1 PUSH1 0x20 MUL PUSH1 0x20 ADD PUSH1 0x40 MLOAD SWAP1 DUP2 ADD PUSH1 0x40 MSTORE DUP1 SWAP3 SWAP2 SWAP1 DUP2 DUP2 MSTORE PUSH1 0x20 ADD PUSH0 SWAP1 JUMPDEST DUP3 DUP3 LT ISZERO PUSH2 0x7BB JUMPI DUP4 DUP3 SWAP1 PUSH0 MSTORE PUSH1 0x20 PUSH0 KECCAK256 ADD DUP1 SLOAD PUSH2 0x730 SWAP1 PUSH2 0x1F62 JUMP JUMPDEST DUP1 PUSH1 0x1F ADD PUSH1 0x20 DUP1 SWAP2 DIV MUL PUSH1 0x20 ADD PUSH1 0x40 MLOAD SWAP1 DUP2 ADD PUSH1 0x40 MSTORE DUP1 SWAP3 SWAP2 SWAP1 DUP2 DUP2 MSTORE PUSH1 0x20 ADD DUP3 DUP1 SLOAD PUSH2 0x75C SWAP1 PUSH2 0x1F62 JUMP JUMPDEST DUP1 ISZERO PUSH2 0x7A7 JUMPI DUP1 PUSH1 0x1F LT PUSH2 0x77E JUMPI PUSH2 0x100 DUP1 DUP4 SLOAD DIV MUL DUP4 MSTORE SWAP2 PUSH1 0x20 ADD SWAP2 PUSH2 0x7A7 JUMP JUMPDEST DUP3 ADD SWAP2 SWAP1 PUSH0 MSTORE PUSH1 0x20 PUSH0 KECCAK256 SWAP1 JUMPDEST DUP2 SLOAD DUP2 MSTORE SWAP1 PUSH1 0x1 ADD SWAP1 PUSH1 0x20 ADD DUP1 DUP4 GT PUSH2 0x78A JUMPI DUP3 SWAP1 SUB PUSH1 0x1F AND DUP3 ADD SWAP2 JUMPDEST POP POP POP POP POP DUP2 MSTORE PUSH1 0x20 ADD SWAP1 PUSH1 0x1 ADD SWAP1 PUSH2 0x713 JUMP JUMPDEST POP POP POP SWAP1 DUP3 MSTORE POP PUSH1 0x6 SWAP2 SWAP1 SWAP2 ADD SLOAD PUSH1 0xFF AND ISZERO ISZERO PUSH1 0x20 SWAP1 SWAP2 ADD MSTORE SWAP3 SWAP2 POP POP JUMP JUMPDEST PUSH0 DUP2 DUP2 MSTORE PUSH1 0x8 PUSH1 0x20 SWAP1 DUP2 MSTORE PUSH1 0x40 DUP1 DUP4 KECCAK256 DUP2 MLOAD PUSH1 0xE0 DUP2 ADD DUP4 MSTORE DUP2 SLOAD DUP2 MSTORE PUSH1 0x1 DUP3 ADD SLOAD PUSH1 0x1 PUSH1 0x1 PUSH1 0xA0 SHL SUB AND SWAP4 DUP2 ADD SWAP4 SWAP1 SWAP4 MSTORE PUSH1 0x2 DUP2 ADD DUP1 SLOAD SWAP2 SWAP3 DUP5 ADD SWAP2 PUSH2 0x81F SWAP1 PUSH2 0x1F62 JUMP JUMPDEST DUP1 PUSH1 0x1F ADD PUSH1 0x20 DUP1 SWAP2 DIV MUL PUSH1 0x20 ADD PUSH1 0x40 MLOAD SWAP1 DUP2 ADD PUSH1 0x40 MSTORE DUP1 SWAP3 SWAP2 SWAP1 DUP2 DUP2 MSTORE PUSH1 0x20 ADD DUP3 DUP1 SLOAD PUSH2 0x84B SWAP1 PUSH2 0x1F62 JUMP JUMPDEST DUP1 ISZERO PUSH2 0x896 JUMPI DUP1 PUSH1 0x1F LT PUSH2 0x86D JUMPI PUSH2 0x100 DUP1 DUP4 SLOAD DIV MUL DUP4 MSTORE SWAP2 PUSH1 0x20 ADD SWAP2 PUSH2 0x896 JUMP JUMPDEST DUP3 ADD SWAP2 SWAP1 PUSH0 MSTORE PUSH1 0x20 PUSH0 KECCAK256 SWAP1 JUMPDEST DUP2 SLOAD DUP2 MSTORE SWAP1 PUSH1 0x1 ADD SWAP1 PUSH1 0x20 ADD DUP1 DUP4 GT PUSH2 0x879 JUMPI DUP3 SWAP1 SUB PUSH1 0x1F AND DUP3 ADD SWAP2 JUMPDEST POP POP POP POP POP DUP2 MSTORE PUSH1 0x20 ADD PUSH1 0x3 DUP3 ADD DUP1 SLOAD PUSH2 0x8AF SWAP1 PUSH2 0x1F62 JUMP JUMPDEST DUP1 PUSH1 0x1F ADD PUSH1 0x20 DUP1 SWAP2 DIV MUL PUSH1 0x20 ADD PUSH1 0x40 MLOAD SWAP1 DUP2 ADD PUSH1 0x40 MSTORE DUP1 SWAP3 SWAP2 SWAP1 DUP2 DUP2 MSTORE PUSH1 0x20 ADD DUP3 DUP1 SLOAD PUSH2 0x8DB SWAP1 PUSH2 0x1F62 JUMP JUMPDEST DUP1 ISZERO PUSH2 0x926 JUMPI DUP1 PUSH1 0x1F LT PUSH2 0x8FD JUMPI PUSH2 0x100 DUP1 DUP4 SLOAD DIV MUL DUP4 MSTORE SWAP2 PUSH1 0x20 ADD SWAP2 PUSH2 0x926 JUMP JUMPDEST DUP3 ADD SWAP2 SWAP1 PUSH0 MSTORE PUSH1 0x20 PUSH0 KECCAK256 SWAP1 JUMPDEST DUP2 SLOAD DUP2 MSTORE SWAP1 PUSH1 0x1 ADD SWAP1 PUSH1 0x20 ADD DUP1 DUP4 GT PUSH2 0x909 JUMPI DUP3 SWAP1 SUB PUSH1 0x1F AND DUP3 ADD SWAP2 JUMPDEST POP POP POP POP POP DUP2 MSTORE PUSH1 0x20 ADD PUSH1 0x4 DUP3 ADD SLOAD DUP2 MSTORE PUSH1 0x20 ADD PUSH1 0x5 DUP3 ADD DUP1 SLOAD DUP1 PUSH1 0x20 MUL PUSH1 0x20 ADD PUSH1 0x40 MLOAD SWAP1 DUP2 ADD PUSH1 0x40 MSTORE DUP1 SWAP3 SWAP2 SWAP1 DUP2 DUP2 MSTORE PUSH1 0x20 ADD PUSH0 SWAP1 JUMPDEST DUP3 DUP3 LT ISZERO PUSH2 0xA05 JUMPI DUP4 DUP3 SWAP1 PUSH0 MSTORE PUSH1 0x20 PUSH0 KECCAK256 ADD DUP1 SLOAD PUSH2 0x97A SWAP1 PUSH2 0x1F62 JUMP JUMPDEST DUP1 PUSH1 0x1F ADD PUSH1 0x20 DUP1 SWAP2 DIV MUL PUSH1 0x20 ADD PUSH1 0x40 MLOAD SWAP1 DUP2 ADD PUSH1 0x40 MSTORE DUP1 SWAP3 SWAP2 SWAP1 DUP2 DUP2 MSTORE PUSH1 0x20 ADD DUP3 DUP1 SLOAD PUSH2 0x9A6 SWAP1 PUSH2 0x1F62 JUMP JUMPDEST DUP1 ISZERO PUSH2 0x9F1 JUMPI DUP1 PUSH1 0x1F LT PUSH2 0x9C8 JUMPI PUSH2 0x100 DUP1 DUP4 SLOAD DIV MUL DUP4 MSTORE SWAP2 PUSH1 0x20 ADD SWAP2 PUSH2 0x9F1 JUMP JUMPDEST DUP3 ADD SWAP2 SWAP1 PUSH0 MSTORE PUSH1 0x20 PUSH0 KECCAK256 SWAP1 JUMPDEST DUP2 SLOAD DUP2 MSTORE SWAP1 PUSH1 0x1 ADD SWAP1 PUSH1 0x20 ADD DUP1 DUP4 GT PUSH2 0x9D4 JUMPI DUP3 SWAP1 SUB PUSH1 0x1F AND DUP3 ADD SWAP2 JUMPDEST POP POP POP POP POP DUP2 MSTORE PUSH1 0x20 ADD SWAP1 PUSH1 0x1 ADD SWAP1 PUSH2 0x95D JUMP JUMPDEST POP POP POP SWAP1 DUP3 MSTORE POP PUSH1 0x6 SWAP2 SWAP1 SWAP2 ADD SLOAD PUSH1 0xFF AND ISZERO ISZERO PUSH1 0x20 SWAP1 SWAP2 ADD MSTORE PUSH1 0xC0 DUP2 ADD MLOAD SWAP1 SWAP2 POP PUSH2 0xA66 JUMPI PUSH1 0x40 MLOAD PUSH3 0x461BCD PUSH1 0xE5 SHL DUP2 MSTORE PUSH1 0x20 PUSH1 0x4 DUP3 ADD MSTORE PUSH1 0x11 PUSH1 0x24 DUP3 ADD MSTORE PUSH17 0x4167656E7420697320696E616374697665 PUSH1 0x78 SHL PUSH1 0x44 DUP3 ADD MSTORE PUSH1 0x64 ADD PUSH2 0x4DC JUMP JUMPDEST DUP1 PUSH1 0x80 ADD MLOAD CALLVALUE LT ISZERO PUSH2 0xABA JUMPI PUSH1 0x40 MLOAD PUSH3 0x461BCD PUSH1 0xE5 SHL DUP2 MSTORE PUSH1 0x20 PUSH1 0x4 DUP3 ADD MSTORE PUSH1 0x1D PUSH1 0x24 DUP3 ADD MSTORE PUSH32 0x496E73756666696369656E742073657276696365206665652073656E74000000 PUSH1 0x44 DUP3 ADD MSTORE PUSH1 0x64 ADD PUSH2 0x4DC JUMP JUMPDEST PUSH1 0x80 DUP2 ADD MLOAD ISZERO PUSH2 0xB5F JUMPI PUSH0 DUP2 PUSH1 0x20 ADD MLOAD PUSH1 0x1 PUSH1 0x1 PUSH1 0xA0 SHL SUB AND CALLVALUE PUSH1 0x40 MLOAD PUSH0 PUSH1 0x40 MLOAD DUP1 DUP4 SUB DUP2 DUP6 DUP8 GAS CALL SWAP3 POP POP POP RETURNDATASIZE DUP1 PUSH0 DUP2 EQ PUSH2 0xB11 JUMPI PUSH1 0x40 MLOAD SWAP2 POP PUSH1 0x1F NOT PUSH1 0x3F RETURNDATASIZE ADD AND DUP3 ADD PUSH1 0x40 MSTORE RETURNDATASIZE DUP3 MSTORE RETURNDATASIZE PUSH0 PUSH1 0x20 DUP5 ADD RETURNDATACOPY PUSH2 0xB16 JUMP JUMPDEST PUSH1 0x60 SWAP2 POP JUMPDEST POP POP SWAP1 POP DUP1 PUSH2 0xB5D JUMPI PUSH1 0x40 MLOAD PUSH3 0x461BCD PUSH1 0xE5 SHL DUP2 MSTORE PUSH1 0x20 PUSH1 0x4 DUP3 ADD MSTORE PUSH1 0x13 PUSH1 0x24 DUP3 ADD MSTORE PUSH19 0x151C985B9CD9995C881999594819985A5B1959 PUSH1 0x6A SHL PUSH1 0x44 DUP3 ADD MSTORE PUSH1 0x64 ADD PUSH2 0x4DC JUMP JUMPDEST POP JUMPDEST PUSH1 0x40 MLOAD CALLVALUE DUP2 MSTORE CALLER SWAP1 DUP4 SWAP1 PUSH32 0x4AABA6099EB20F6AF209C4BF785FF01746AFD56A22C08D54E9936538510C5AFC SWAP1 PUSH1 0x20 ADD PUSH1 0x40 MLOAD DUP1 SWAP2 SUB SWAP1 LOG3 POP POP JUMP JUMPDEST CALLER PUSH2 0xBA4 DUP4 PUSH2 0xDB9 JUMP JUMPDEST PUSH1 0x1 PUSH1 0x1 PUSH1 0xA0 SHL SUB AND EQ PUSH2 0xBFA JUMPI PUSH1 0x40 MLOAD PUSH3 0x461BCD PUSH1 0xE5 SHL DUP2 MSTORE PUSH1 0x20 PUSH1 0x4 DUP3 ADD MSTORE PUSH1 0x1F PUSH1 0x24 DUP3 ADD MSTORE PUSH32 0x4F6E6C79206167656E74206F776E65722063616E207570646174652066656500 PUSH1 0x44 DUP3 ADD MSTORE PUSH1 0x64 ADD PUSH2 0x4DC JUMP JUMPDEST PUSH0 DUP3 DUP2 MSTORE PUSH1 0x8 PUSH1 0x20 MSTORE PUSH1 0x40 SWAP1 DUP2 SWAP1 KECCAK256 PUSH1 0x4 ADD DUP3 SWAP1 SSTORE MLOAD DUP3 SWAP1 PUSH31 0x3B413CF14A67407425BD0B5C065B2DE08876554D8489AD7DD4AA95604D280C SWAP1 PUSH2 0xC40 SWAP1 DUP5 DUP2 MSTORE PUSH1 0x20 ADD SWAP1 JUMP JUMPDEST PUSH1 0x40 MLOAD DUP1 SWAP2 SUB SWAP1 LOG2 POP POP JUMP JUMPDEST PUSH2 0xC66 DUP4 DUP4 DUP4 PUSH1 0x40 MLOAD DUP1 PUSH1 0x20 ADD PUSH1 0x40 MSTORE DUP1 PUSH0 DUP2 MSTORE POP PUSH2 0xFFE JUMP JUMPDEST POP POP POP JUMP JUMPDEST PUSH1 0x8 PUSH1 0x20 MSTORE PUSH0 SWAP1 DUP2 MSTORE PUSH1 0x40 SWAP1 KECCAK256 DUP1 SLOAD PUSH1 0x1 DUP3 ADD SLOAD PUSH1 0x2 DUP4 ADD DUP1 SLOAD SWAP3 SWAP4 PUSH1 0x1 PUSH1 0x1 PUSH1 0xA0 SHL SUB SWAP1 SWAP3 AND SWAP3 PUSH2 0xC9C SWAP1 PUSH2 0x1F62 JUMP JUMPDEST DUP1 PUSH1 0x1F ADD PUSH1 0x20 DUP1 SWAP2 DIV MUL PUSH1 0x20 ADD PUSH1 0x40 MLOAD SWAP1 DUP2 ADD PUSH1 0x40 MSTORE DUP1 SWAP3 SWAP2 SWAP1 DUP2 DUP2 MSTORE PUSH1 0x20 ADD DUP3 DUP1 SLOAD PUSH2 0xCC8 SWAP1 PUSH2 0x1F62 JUMP JUMPDEST DUP1 ISZERO PUSH2 0xD13 JUMPI DUP1 PUSH1 0x1F LT PUSH2 0xCEA JUMPI PUSH2 0x100 DUP1 DUP4 SLOAD DIV MUL DUP4 MSTORE SWAP2 PUSH1 0x20 ADD SWAP2 PUSH2 0xD13 JUMP JUMPDEST DUP3 ADD SWAP2 SWAP1 PUSH0 MSTORE PUSH1 0x20 PUSH0 KECCAK256 SWAP1 JUMPDEST DUP2 SLOAD DUP2 MSTORE SWAP1 PUSH1 0x1 ADD SWAP1 PUSH1 0x20 ADD DUP1 DUP4 GT PUSH2 0xCF6 JUMPI DUP3 SWAP1 SUB PUSH1 0x1F AND DUP3 ADD SWAP2 JUMPDEST POP POP POP POP POP SWAP1 DUP1 PUSH1 0x3 ADD DUP1 SLOAD PUSH2 0xD28 SWAP1 PUSH2 0x1F62 JUMP JUMPDEST DUP1 PUSH1 0x1F ADD PUSH1 0x20 DUP1 SWAP2 DIV MUL PUSH1 0x20 ADD PUSH1 0x40 MLOAD SWAP1 DUP2 ADD PUSH1 0x40 MSTORE DUP1 SWAP3 SWAP2 SWAP1 DUP2 DUP2 MSTORE PUSH1 0x20 ADD DUP3 DUP1 SLOAD PUSH2 0xD54 SWAP1 PUSH2 0x1F62 JUMP JUMPDEST DUP1 ISZERO PUSH2 0xD9F JUMPI DUP1 PUSH1 0x1F LT PUSH2 0xD76 JUMPI PUSH2 0x100 DUP1 DUP4 SLOAD DIV MUL DUP4 MSTORE SWAP2 PUSH1 0x20 ADD SWAP2 PUSH2 0xD9F JUMP JUMPDEST DUP3 ADD SWAP2 SWAP1 PUSH0 MSTORE PUSH1 0x20 PUSH0 KECCAK256 SWAP1 JUMPDEST DUP2 SLOAD DUP2 MSTORE SWAP1 PUSH1 0x1 ADD SWAP1 PUSH1 0x20 ADD DUP1 DUP4 GT PUSH2 0xD82 JUMPI DUP3 SWAP1 SUB PUSH1 0x1F AND DUP3 ADD SWAP2 JUMPDEST POP POP POP POP PUSH1 0x4 DUP4 ADD SLOAD PUSH1 0x6 SWAP1 SWAP4 ADD SLOAD SWAP2 SWAP3 SWAP2 PUSH1 0xFF AND SWAP1 POP DUP7 JUMP JUMPDEST PUSH0 PUSH2 0x3EC DUP3 PUSH2 0x1113 JUMP JUMPDEST PUSH1 0x7 SLOAD PUSH0 SWAP1 PUSH2 0xDD2 CALLER DUP3 PUSH2 0x124A JUMP JUMPDEST PUSH2 0xDDC DUP2 DUP7 PUSH2 0x1263 JUMP JUMPDEST PUSH1 0x40 DUP1 MLOAD PUSH1 0xE0 DUP2 ADD DUP3 MSTORE DUP3 DUP2 MSTORE CALLER PUSH1 0x20 DUP1 DUP4 ADD SWAP2 DUP3 MSTORE DUP3 DUP5 ADD DUP12 DUP2 MSTORE PUSH1 0x60 DUP5 ADD DUP12 SWAP1 MSTORE PUSH1 0x80 DUP5 ADD DUP10 SWAP1 MSTORE PUSH1 0xA0 DUP5 ADD DUP9 SWAP1 MSTORE PUSH1 0x1 PUSH1 0xC0 DUP6 ADD DUP2 SWAP1 MSTORE PUSH0 DUP8 DUP2 MSTORE PUSH1 0x8 SWAP1 SWAP4 MSTORE SWAP5 SWAP1 SWAP2 KECCAK256 DUP4 MLOAD DUP2 SSTORE SWAP2 MLOAD SWAP4 DUP3 ADD DUP1 SLOAD PUSH1 0x1 PUSH1 0x1 PUSH1 0xA0 SHL SUB NOT AND PUSH1 0x1 PUSH1 0x1 PUSH1 0xA0 SHL SUB SWAP1 SWAP6 AND SWAP5 SWAP1 SWAP5 OR SWAP1 SWAP4 SSTORE SWAP2 MLOAD SWAP1 SWAP2 SWAP1 PUSH1 0x2 DUP3 ADD SWAP1 PUSH2 0xE5E SWAP1 DUP3 PUSH2 0x1FDE JUMP JUMPDEST POP PUSH1 0x60 DUP3 ADD MLOAD PUSH1 0x3 DUP3 ADD SWAP1 PUSH2 0xE73 SWAP1 DUP3 PUSH2 0x1FDE JUMP JUMPDEST POP PUSH1 0x80 DUP3 ADD MLOAD PUSH1 0x4 DUP3 ADD SSTORE PUSH1 0xA0 DUP3 ADD MLOAD DUP1 MLOAD PUSH2 0xE99 SWAP2 PUSH1 0x5 DUP5 ADD SWAP2 PUSH1 0x20 SWAP1 SWAP2 ADD SWAP1 PUSH2 0x1959 JUMP JUMPDEST POP PUSH1 0xC0 SWAP2 SWAP1 SWAP2 ADD MLOAD PUSH1 0x6 SWAP1 SWAP2 ADD DUP1 SLOAD PUSH1 0xFF NOT AND SWAP2 ISZERO ISZERO SWAP2 SWAP1 SWAP2 OR SWAP1 SSTORE PUSH1 0x40 MLOAD CALLER SWAP1 DUP3 SWAP1 PUSH32 0xC29F819AC362FF9C94DE06666235808451AAFD8894A2DFFB86A080A965EFEAE3 SWAP1 PUSH2 0xEEB SWAP1 DUP12 SWAP1 DUP10 SWAP1 PUSH2 0x209A JUMP JUMPDEST PUSH1 0x40 MLOAD DUP1 SWAP2 SUB SWAP1 LOG3 PUSH1 0x7 DUP1 SLOAD SWAP1 PUSH0 PUSH2 0xF02 DUP4 PUSH2 0x20BB JUMP JUMPDEST SWAP1 SWAP2 SSTORE POP SWAP1 SWAP8 SWAP7 POP POP POP POP POP POP POP JUMP JUMPDEST PUSH0 PUSH1 0x1 PUSH1 0x1 PUSH1 0xA0 SHL SUB DUP3 AND PUSH2 0xF3C JUMPI PUSH1 0x40 MLOAD PUSH4 0x22718AD9 PUSH1 0xE2 SHL DUP2 MSTORE PUSH0 PUSH1 0x4 DUP3 ADD MSTORE PUSH1 0x24 ADD PUSH2 0x4DC JUMP JUMPDEST POP PUSH1 0x1 PUSH1 0x1 PUSH1 0xA0 SHL SUB AND PUSH0 SWAP1 DUP2 MSTORE PUSH1 0x3 PUSH1 0x20 MSTORE PUSH1 0x40 SWAP1 KECCAK256 SLOAD SWAP1 JUMP JUMPDEST PUSH1 0x60 PUSH1 0x1 DUP1 SLOAD PUSH2 0x400 SWAP1 PUSH2 0x1F62 JUMP JUMPDEST CALLER PUSH2 0xF70 DUP3 PUSH2 0xDB9 JUMP JUMPDEST PUSH1 0x1 PUSH1 0x1 PUSH1 0xA0 SHL SUB AND EQ PUSH2 0xFD1 JUMPI PUSH1 0x40 MLOAD PUSH3 0x461BCD PUSH1 0xE5 SHL DUP2 MSTORE PUSH1 0x20 PUSH1 0x4 DUP3 ADD MSTORE PUSH1 0x22 PUSH1 0x24 DUP3 ADD MSTORE PUSH32 0x4F6E6C79206167656E74206F776E65722063616E20746F67676C652073746174 PUSH1 0x44 DUP3 ADD MSTORE PUSH2 0x7573 PUSH1 0xF0 SHL PUSH1 0x64 DUP3 ADD MSTORE PUSH1 0x84 ADD PUSH2 0x4DC JUMP JUMPDEST PUSH0 SWAP1 DUP2 MSTORE PUSH1 0x8 PUSH1 0x20 MSTORE PUSH1 0x40 SWAP1 KECCAK256 PUSH1 0x6 ADD DUP1 SLOAD PUSH1 0xFF NOT DUP2 AND PUSH1 0xFF SWAP1 SWAP2 AND ISZERO OR SWAP1 SSTORE JUMP JUMPDEST PUSH2 0x4B3 CALLER DUP4 DUP4 PUSH2 0x12B2 JUMP JUMPDEST PUSH2 0x1009 DUP5 DUP5 DUP5 PUSH2 0x4B7 JUMP JUMPDEST PUSH2 0x53F CALLER DUP6 DUP6 DUP6 DUP6 PUSH2 0x1379 JUMP JUMPDEST PUSH1 0x60 PUSH2 0x1021 DUP3 PUSH2 0x1113 JUMP JUMPDEST POP PUSH0 PUSH2 0x1037 PUSH1 0x40 DUP1 MLOAD PUSH1 0x20 DUP2 ADD SWAP1 SWAP2 MSTORE PUSH0 DUP2 MSTORE SWAP1 JUMP JUMPDEST SWAP1 POP PUSH0 PUSH2 0x1043 DUP5 PUSH2 0x14A1 JUMP JUMPDEST SWAP1 POP DUP2 MLOAD PUSH0 SUB PUSH2 0x1054 JUMPI SWAP4 SWAP3 POP POP POP JUMP JUMPDEST DUP1 MLOAD ISZERO PUSH2 0x1086 JUMPI DUP2 DUP2 PUSH1 0x40 MLOAD PUSH1 0x20 ADD PUSH2 0x106E SWAP3 SWAP2 SWAP1 PUSH2 0x20DF JUMP JUMPDEST PUSH1 0x40 MLOAD PUSH1 0x20 DUP2 DUP4 SUB SUB DUP2 MSTORE SWAP1 PUSH1 0x40 MSTORE SWAP3 POP POP POP SWAP2 SWAP1 POP JUMP JUMPDEST PUSH2 0x108F DUP5 PUSH2 0x1540 JUMP JUMPDEST SWAP5 SWAP4 POP POP POP POP JUMP JUMPDEST PUSH1 0x1 PUSH1 0x1 PUSH1 0xA0 SHL SUB SWAP2 DUP3 AND PUSH0 SWAP1 DUP2 MSTORE PUSH1 0x5 PUSH1 0x20 SWAP1 DUP2 MSTORE PUSH1 0x40 DUP1 DUP4 KECCAK256 SWAP4 SWAP1 SWAP5 AND DUP3 MSTORE SWAP2 SWAP1 SWAP2 MSTORE KECCAK256 SLOAD PUSH1 0xFF AND SWAP1 JUMP JUMPDEST PUSH0 PUSH1 0x1 PUSH1 0x1 PUSH1 0xE0 SHL SUB NOT DUP3 AND PUSH4 0x80AC58CD PUSH1 0xE0 SHL EQ DUP1 PUSH2 0x10F4 JUMPI POP PUSH1 0x1 PUSH1 0x1 PUSH1 0xE0 SHL SUB NOT DUP3 AND PUSH4 0x5B5E139F PUSH1 0xE0 SHL EQ JUMPDEST DUP1 PUSH2 0x3EC JUMPI POP PUSH4 0x1FFC9A7 PUSH1 0xE0 SHL PUSH1 0x1 PUSH1 0x1 PUSH1 0xE0 SHL SUB NOT DUP4 AND EQ PUSH2 0x3EC JUMP JUMPDEST PUSH0 DUP2 DUP2 MSTORE PUSH1 0x2 PUSH1 0x20 MSTORE PUSH1 0x40 DUP2 KECCAK256 SLOAD PUSH1 0x1 PUSH1 0x1 PUSH1 0xA0 SHL SUB AND DUP1 PUSH2 0x3EC JUMPI PUSH1 0x40 MLOAD PUSH4 0x7E273289 PUSH1 0xE0 SHL DUP2 MSTORE PUSH1 0x4 DUP2 ADD DUP5 SWAP1 MSTORE PUSH1 0x24 ADD PUSH2 0x4DC JUMP JUMPDEST PUSH2 0xC66 DUP4 DUP4 DUP4 PUSH1 0x1 PUSH2 0x15B1 JUMP JUMPDEST PUSH0 DUP3 DUP2 MSTORE PUSH1 0x2 PUSH1 0x20 MSTORE PUSH1 0x40 DUP2 KECCAK256 SLOAD PUSH1 0x1 PUSH1 0x1 PUSH1 0xA0 SHL SUB SWAP1 DUP2 AND SWAP1 DUP4 AND ISZERO PUSH2 0x1184 JUMPI PUSH2 0x1184 DUP2 DUP5 DUP7 PUSH2 0x16B5 JUMP JUMPDEST PUSH1 0x1 PUSH1 0x1 PUSH1 0xA0 SHL SUB DUP2 AND ISZERO PUSH2 0x11BE JUMPI PUSH2 0x119F PUSH0 DUP6 PUSH0 DUP1 PUSH2 0x15B1 JUMP JUMPDEST PUSH1 0x1 PUSH1 0x1 PUSH1 0xA0 SHL SUB DUP2 AND PUSH0 SWAP1 DUP2 MSTORE PUSH1 0x3 PUSH1 0x20 MSTORE PUSH1 0x40 SWAP1 KECCAK256 DUP1 SLOAD PUSH0 NOT ADD SWAP1 SSTORE JUMPDEST PUSH1 0x1 PUSH1 0x1 PUSH1 0xA0 SHL SUB DUP6 AND ISZERO PUSH2 0x11EC JUMPI PUSH1 0x1 PUSH1 0x1 PUSH1 0xA0 SHL SUB DUP6 AND PUSH0 SWAP1 DUP2 MSTORE PUSH1 0x3 PUSH1 0x20 MSTORE PUSH1 0x40 SWAP1 KECCAK256 DUP1 SLOAD PUSH1 0x1 ADD SWAP1 SSTORE JUMPDEST PUSH0 DUP5 DUP2 MSTORE PUSH1 0x2 PUSH1 0x20 MSTORE PUSH1 0x40 DUP1 DUP3 KECCAK256 DUP1 SLOAD PUSH1 0x1 PUSH1 0x1 PUSH1 0xA0 SHL SUB NOT AND PUSH1 0x1 PUSH1 0x1 PUSH1 0xA0 SHL SUB DUP10 DUP2 AND SWAP2 DUP3 OR SWAP1 SWAP3 SSTORE SWAP2 MLOAD DUP8 SWAP4 SWAP2 DUP6 AND SWAP2 PUSH32 0xDDF252AD1BE2C89B69C2B068FC378DAA952BA7F163C4A11628F55A4DF523B3EF SWAP2 LOG4 SWAP5 SWAP4 POP POP POP POP JUMP JUMPDEST PUSH2 0x4B3 DUP3 DUP3 PUSH1 0x40 MLOAD DUP1 PUSH1 0x20 ADD PUSH1 0x40 MSTORE DUP1 PUSH0 DUP2 MSTORE POP PUSH2 0x1719 JUMP JUMPDEST PUSH0 DUP3 DUP2 MSTORE PUSH1 0x6 PUSH1 0x20 MSTORE PUSH1 0x40 SWAP1 KECCAK256 PUSH2 0x127A DUP3 DUP3 PUSH2 0x1FDE JUMP JUMPDEST POP PUSH1 0x40 MLOAD DUP3 DUP2 MSTORE PUSH32 0xF8E1A15ABA9398E019F0B49DF1A4FDE98EE17AE345CB5F6B5E2C27F5033E8CE7 SWAP1 PUSH1 0x20 ADD PUSH1 0x40 MLOAD DUP1 SWAP2 SUB SWAP1 LOG1 POP POP JUMP JUMPDEST PUSH1 0x1 PUSH1 0x1 PUSH1 0xA0 SHL SUB DUP4 AND PUSH2 0x12DB JUMPI PUSH1 0x40 MLOAD PUSH4 0xA9FBF51F PUSH1 0xE0 SHL DUP2 MSTORE PUSH0 PUSH1 0x4 DUP3 ADD MSTORE PUSH1 0x24 ADD PUSH2 0x4DC JUMP JUMPDEST PUSH1 0x1 PUSH1 0x1 PUSH1 0xA0 SHL SUB DUP3 AND PUSH2 0x130D JUMPI PUSH1 0x40 MLOAD PUSH4 0xB611743 PUSH1 0xE3 SHL DUP2 MSTORE PUSH1 0x1 PUSH1 0x1 PUSH1 0xA0 SHL SUB DUP4 AND PUSH1 0x4 DUP3 ADD MSTORE PUSH1 0x24 ADD PUSH2 0x4DC JUMP JUMPDEST PUSH1 0x1 PUSH1 0x1 PUSH1 0xA0 SHL SUB DUP4 DUP2 AND PUSH0 DUP2 DUP2 MSTORE PUSH1 0x5 PUSH1 0x20 SWAP1 DUP2 MSTORE PUSH1 0x40 DUP1 DUP4 KECCAK256 SWAP5 DUP8 AND DUP1 DUP5 MSTORE SWAP5 DUP3 MSTORE SWAP2 DUP3 SWAP1 KECCAK256 DUP1 SLOAD PUSH1 0xFF NOT AND DUP7 ISZERO ISZERO SWAP1 DUP2 OR SWAP1 SWAP2 SSTORE SWAP2 MLOAD SWAP2 DUP3 MSTORE PUSH32 0x17307EAB39AB6107E8899845AD3D59BD9653F200F220920489CA2B5937696C31 SWAP2 ADD PUSH1 0x40 MLOAD DUP1 SWAP2 SUB SWAP1 LOG3 POP POP POP JUMP JUMPDEST PUSH1 0x1 PUSH1 0x1 PUSH1 0xA0 SHL SUB DUP4 AND EXTCODESIZE ISZERO PUSH2 0x149A JUMPI PUSH1 0x40 MLOAD PUSH4 0xA85BD01 PUSH1 0xE1 SHL DUP2 MSTORE PUSH1 0x1 PUSH1 0x1 PUSH1 0xA0 SHL SUB DUP5 AND SWAP1 PUSH4 0x150B7A02 SWAP1 PUSH2 0x13BB SWAP1 DUP9 SWAP1 DUP9 SWAP1 DUP8 SWAP1 DUP8 SWAP1 PUSH1 0x4 ADD PUSH2 0x210D JUMP JUMPDEST PUSH1 0x20 PUSH1 0x40 MLOAD DUP1 DUP4 SUB DUP2 PUSH0 DUP8 GAS CALL SWAP3 POP POP POP DUP1 ISZERO PUSH2 0x13F5 JUMPI POP PUSH1 0x40 DUP1 MLOAD PUSH1 0x1F RETURNDATASIZE SWAP1 DUP2 ADD PUSH1 0x1F NOT AND DUP3 ADD SWAP1 SWAP3 MSTORE PUSH2 0x13F2 SWAP2 DUP2 ADD SWAP1 PUSH2 0x2149 JUMP JUMPDEST PUSH1 0x1 JUMPDEST PUSH2 0x145C JUMPI RETURNDATASIZE DUP1 DUP1 ISZERO PUSH2 0x1422 JUMPI PUSH1 0x40 MLOAD SWAP2 POP PUSH1 0x1F NOT PUSH1 0x3F RETURNDATASIZE ADD AND DUP3 ADD PUSH1 0x40 MSTORE RETURNDATASIZE DUP3 MSTORE RETURNDATASIZE PUSH0 PUSH1 0x20 DUP5 ADD RETURNDATACOPY PUSH2 0x1427 JUMP JUMPDEST PUSH1 0x60 SWAP2 POP JUMPDEST POP DUP1 MLOAD PUSH0 SUB PUSH2 0x1454 JUMPI PUSH1 0x40 MLOAD PUSH4 0x32505749 PUSH1 0xE1 SHL DUP2 MSTORE PUSH1 0x1 PUSH1 0x1 PUSH1 0xA0 SHL SUB DUP6 AND PUSH1 0x4 DUP3 ADD MSTORE PUSH1 0x24 ADD PUSH2 0x4DC JUMP JUMPDEST DUP1 MLOAD PUSH1 0x20 DUP3 ADD REVERT JUMPDEST PUSH1 0x1 PUSH1 0x1 PUSH1 0xE0 SHL SUB NOT DUP2 AND PUSH4 0xA85BD01 PUSH1 0xE1 SHL EQ PUSH2 0x1498 JUMPI PUSH1 0x40 MLOAD PUSH4 0x32505749 PUSH1 0xE1 SHL DUP2 MSTORE PUSH1 0x1 PUSH1 0x1 PUSH1 0xA0 SHL SUB DUP6 AND PUSH1 0x4 DUP3 ADD MSTORE PUSH1 0x24 ADD PUSH2 0x4DC JUMP JUMPDEST POP JUMPDEST POP POP POP POP POP JUMP JUMPDEST PUSH0 DUP2 DUP2 MSTORE PUSH1 0x6 PUSH1 0x20 MSTORE PUSH1 0x40 SWAP1 KECCAK256 DUP1 SLOAD PUSH1 0x60 SWAP2 SWAP1 PUSH2 0x14BD SWAP1 PUSH2 0x1F62 JUMP JUMPDEST DUP1 PUSH1 0x1F ADD PUSH1 0x20 DUP1 SWAP2 DIV MUL PUSH1 0x20 ADD PUSH1 0x40 MLOAD SWAP1 DUP2 ADD PUSH1 0x40 MSTORE DUP1 SWAP3 SWAP2 SWAP1 DUP2 DUP2 MSTORE PUSH1 0x20 ADD DUP3 DUP1 SLOAD PUSH2 0x14E9 SWAP1 PUSH2 0x1F62 JUMP JUMPDEST DUP1 ISZERO PUSH2 0x1534 JUMPI DUP1 PUSH1 0x1F LT PUSH2 0x150B JUMPI PUSH2 0x100 DUP1 DUP4 SLOAD DIV MUL DUP4 MSTORE SWAP2 PUSH1 0x20 ADD SWAP2 PUSH2 0x1534 JUMP JUMPDEST DUP3 ADD SWAP2 SWAP1 PUSH0 MSTORE PUSH1 0x20 PUSH0 KECCAK256 SWAP1 JUMPDEST DUP2 SLOAD DUP2 MSTORE SWAP1 PUSH1 0x1 ADD SWAP1 PUSH1 0x20 ADD DUP1 DUP4 GT PUSH2 0x1517 JUMPI DUP3 SWAP1 SUB PUSH1 0x1F AND DUP3 ADD SWAP2 JUMPDEST POP POP POP POP POP SWAP1 POP SWAP2 SWAP1 POP JUMP JUMPDEST PUSH1 0x60 PUSH2 0x154B DUP3 PUSH2 0x1113 JUMP JUMPDEST POP PUSH0 PUSH2 0x1561 PUSH1 0x40 DUP1 MLOAD PUSH1 0x20 DUP2 ADD SWAP1 SWAP2 MSTORE PUSH0 DUP2 MSTORE SWAP1 JUMP JUMPDEST SWAP1 POP PUSH0 DUP2 MLOAD GT PUSH2 0x157F JUMPI PUSH1 0x40 MLOAD DUP1 PUSH1 0x20 ADD PUSH1 0x40 MSTORE DUP1 PUSH0 DUP2 MSTORE POP PUSH2 0x15AA JUMP JUMPDEST DUP1 PUSH2 0x1589 DUP5 PUSH2 0x1730 JUMP JUMPDEST PUSH1 0x40 MLOAD PUSH1 0x20 ADD PUSH2 0x159A SWAP3 SWAP2 SWAP1 PUSH2 0x20DF JUMP JUMPDEST PUSH1 0x40 MLOAD PUSH1 0x20 DUP2 DUP4 SUB SUB DUP2 MSTORE SWAP1 PUSH1 0x40 MSTORE JUMPDEST SWAP4 SWAP3 POP POP POP JUMP JUMPDEST DUP1 DUP1 PUSH2 0x15C5 JUMPI POP PUSH1 0x1 PUSH1 0x1 PUSH1 0xA0 SHL SUB DUP3 AND ISZERO ISZERO JUMPDEST ISZERO PUSH2 0x1686 JUMPI PUSH0 PUSH2 0x15D4 DUP5 PUSH2 0x1113 JUMP JUMPDEST SWAP1 POP PUSH1 0x1 PUSH1 0x1 PUSH1 0xA0 SHL SUB DUP4 AND ISZERO DUP1 ISZERO SWAP1 PUSH2 0x1600 JUMPI POP DUP3 PUSH1 0x1 PUSH1 0x1 PUSH1 0xA0 SHL SUB AND DUP2 PUSH1 0x1 PUSH1 0x1 PUSH1 0xA0 SHL SUB AND EQ ISZERO JUMPDEST DUP1 ISZERO PUSH2 0x1613 JUMPI POP PUSH2 0x1611 DUP2 DUP5 PUSH2 0x1097 JUMP JUMPDEST ISZERO JUMPDEST ISZERO PUSH2 0x163C JUMPI PUSH1 0x40 MLOAD PUSH4 0xA9FBF51F PUSH1 0xE0 SHL DUP2 MSTORE PUSH1 0x1 PUSH1 0x1 PUSH1 0xA0 SHL SUB DUP5 AND PUSH1 0x4 DUP3 ADD MSTORE PUSH1 0x24 ADD PUSH2 0x4DC JUMP JUMPDEST DUP2 ISZERO PUSH2 0x1684 JUMPI DUP4 DUP6 PUSH1 0x1 PUSH1 0x1 PUSH1 0xA0 SHL SUB AND DUP3 PUSH1 0x1 PUSH1 0x1 PUSH1 0xA0 SHL SUB AND PUSH32 0x8C5BE1E5EBEC7D5BD14F71427D1E84F3DD0314C0F7B2291E5B200AC8C7C3B925 PUSH1 0x40 MLOAD PUSH1 0x40 MLOAD DUP1 SWAP2 SUB SWAP1 LOG4 JUMPDEST POP JUMPDEST POP POP PUSH0 SWAP1 DUP2 MSTORE PUSH1 0x4 PUSH1 0x20 MSTORE PUSH1 0x40 SWAP1 KECCAK256 DUP1 SLOAD PUSH1 0x1 PUSH1 0x1 PUSH1 0xA0 SHL SUB NOT AND PUSH1 0x1 PUSH1 0x1 PUSH1 0xA0 SHL SUB SWAP3 SWAP1 SWAP3 AND SWAP2 SWAP1 SWAP2 OR SWAP1 SSTORE JUMP JUMPDEST PUSH2 0x16C0 DUP4 DUP4 DUP4 PUSH2 0x17C0 JUMP JUMPDEST PUSH2 0xC66 JUMPI PUSH1 0x1 PUSH1 0x1 PUSH1 0xA0 SHL SUB DUP4 AND PUSH2 0x16EE JUMPI PUSH1 0x40 MLOAD PUSH4 0x7E273289 PUSH1 0xE0 SHL DUP2 MSTORE PUSH1 0x4 DUP2 ADD DUP3 SWAP1 MSTORE PUSH1 0x24 ADD PUSH2 0x4DC JUMP JUMPDEST PUSH1 0x40 MLOAD PUSH4 0x177E802F PUSH1 0xE0 SHL DUP2 MSTORE PUSH1 0x1 PUSH1 0x1 PUSH1 0xA0 SHL SUB DUP4 AND PUSH1 0x4 DUP3 ADD MSTORE PUSH1 0x24 DUP2 ADD DUP3 SWAP1 MSTORE PUSH1 0x44 ADD PUSH2 0x4DC JUMP JUMPDEST PUSH2 0x1723 DUP4 DUP4 PUSH2 0x1821 JUMP JUMPDEST PUSH2 0xC66 CALLER PUSH0 DUP6 DUP6 DUP6 PUSH2 0x1379 JUMP JUMPDEST PUSH1 0x60 PUSH0 PUSH2 0x173C DUP4 PUSH2 0x1882 JUMP JUMPDEST PUSH1 0x1 ADD SWAP1 POP PUSH0 DUP2 PUSH8 0xFFFFFFFFFFFFFFFF DUP2 GT ISZERO PUSH2 0x175B JUMPI PUSH2 0x175B PUSH2 0x1C84 JUMP JUMPDEST PUSH1 0x40 MLOAD SWAP1 DUP1 DUP3 MSTORE DUP1 PUSH1 0x1F ADD PUSH1 0x1F NOT AND PUSH1 0x20 ADD DUP3 ADD PUSH1 0x40 MSTORE DUP1 ISZERO PUSH2 0x1785 JUMPI PUSH1 0x20 DUP3 ADD DUP2 DUP1 CALLDATASIZE DUP4 CALLDATACOPY ADD SWAP1 POP JUMPDEST POP SWAP1 POP DUP2 DUP2 ADD PUSH1 0x20 ADD JUMPDEST PUSH0 NOT ADD PUSH16 0x181899199A1A9B1B9C1CB0B131B232B3 PUSH1 0x81 SHL PUSH1 0xA DUP7 MOD BYTE DUP2 MSTORE8 PUSH1 0xA DUP6 DIV SWAP5 POP DUP5 PUSH2 0x178F JUMPI POP SWAP4 SWAP3 POP POP POP JUMP JUMPDEST PUSH0 PUSH1 0x1 PUSH1 0x1 PUSH1 0xA0 SHL SUB DUP4 AND ISZERO DUP1 ISZERO SWAP1 PUSH2 0x108F JUMPI POP DUP3 PUSH1 0x1 PUSH1 0x1 PUSH1 0xA0 SHL SUB AND DUP5 PUSH1 0x1 PUSH1 0x1 PUSH1 0xA0 SHL SUB AND EQ DUP1 PUSH2 0x17F9 JUMPI POP PUSH2 0x17F9 DUP5 DUP5 PUSH2 0x1097 JUMP JUMPDEST DUP1 PUSH2 0x108F JUMPI POP POP PUSH0 SWAP1 DUP2 MSTORE PUSH1 0x4 PUSH1 0x20 MSTORE PUSH1 0x40 SWAP1 KECCAK256 SLOAD PUSH1 0x1 PUSH1 0x1 PUSH1 0xA0 SHL SUB SWAP1 DUP2 AND SWAP2 AND EQ SWAP2 SWAP1 POP JUMP JUMPDEST PUSH1 0x1 PUSH1 0x1 PUSH1 0xA0 SHL SUB DUP3 AND PUSH2 0x184A JUMPI PUSH1 0x40 MLOAD PUSH4 0x32505749 PUSH1 0xE1 SHL DUP2 MSTORE PUSH0 PUSH1 0x4 DUP3 ADD MSTORE PUSH1 0x24 ADD PUSH2 0x4DC JUMP JUMPDEST PUSH0 PUSH2 0x1856 DUP4 DUP4 PUSH0 PUSH2 0x1158 JUMP JUMPDEST SWAP1 POP PUSH1 0x1 PUSH1 0x1 PUSH1 0xA0 SHL SUB DUP2 AND ISZERO PUSH2 0xC66 JUMPI PUSH1 0x40 MLOAD PUSH4 0x39E35637 PUSH1 0xE1 SHL DUP2 MSTORE PUSH0 PUSH1 0x4 DUP3 ADD MSTORE PUSH1 0x24 ADD PUSH2 0x4DC JUMP JUMPDEST PUSH0 DUP1 PUSH19 0x184F03E93FF9F4DAA797ED6E38ED64BF6A1F01 PUSH1 0x40 SHL DUP4 LT PUSH2 0x18C0 JUMPI PUSH19 0x184F03E93FF9F4DAA797ED6E38ED64BF6A1F01 PUSH1 0x40 SHL DUP4 DIV SWAP3 POP PUSH1 0x40 ADD JUMPDEST PUSH14 0x4EE2D6D415B85ACEF8100000000 DUP4 LT PUSH2 0x18EC JUMPI PUSH14 0x4EE2D6D415B85ACEF8100000000 DUP4 DIV SWAP3 POP PUSH1 0x20 ADD JUMPDEST PUSH7 0x2386F26FC10000 DUP4 LT PUSH2 0x190A JUMPI PUSH7 0x2386F26FC10000 DUP4 DIV SWAP3 POP PUSH1 0x10 ADD JUMPDEST PUSH4 0x5F5E100 DUP4 LT PUSH2 0x1922 JUMPI PUSH4 0x5F5E100 DUP4 DIV SWAP3 POP PUSH1 0x8 ADD JUMPDEST PUSH2 0x2710 DUP4 LT PUSH2 0x1936 JUMPI PUSH2 0x2710 DUP4 DIV SWAP3 POP PUSH1 0x4 ADD JUMPDEST PUSH1 0x64 DUP4 LT PUSH2 0x1948 JUMPI PUSH1 0x64 DUP4 DIV SWAP3 POP PUSH1 0x2 ADD JUMPDEST PUSH1 0xA DUP4 LT PUSH2 0x3EC JUMPI PUSH1 0x1 ADD SWAP3 SWAP2 POP POP JUMP JUMPDEST DUP3 DUP1 SLOAD DUP3 DUP3 SSTORE SWAP1 PUSH0 MSTORE PUSH1 0x20 PUSH0 KECCAK256 SWAP1 DUP2 ADD SWAP3 DUP3 ISZERO PUSH2 0x199D JUMPI SWAP2 PUSH1 0x20 MUL DUP3 ADD JUMPDEST DUP3 DUP2 GT ISZERO PUSH2 0x199D JUMPI DUP3 MLOAD DUP3 SWAP1 PUSH2 0x198D SWAP1 DUP3 PUSH2 0x1FDE JUMP JUMPDEST POP SWAP2 PUSH1 0x20 ADD SWAP2 SWAP1 PUSH1 0x1 ADD SWAP1 PUSH2 0x1977 JUMP JUMPDEST POP PUSH2 0x19A9 SWAP3 SWAP2 POP PUSH2 0x19AD JUMP JUMPDEST POP SWAP1 JUMP JUMPDEST DUP1 DUP3 GT ISZERO PUSH2 0x19A9 JUMPI PUSH0 PUSH2 0x19C0 DUP3 DUP3 PUSH2 0x19C9 JUMP JUMPDEST POP PUSH1 0x1 ADD PUSH2 0x19AD JUMP JUMPDEST POP DUP1 SLOAD PUSH2 0x19D5 SWAP1 PUSH2 0x1F62 JUMP JUMPDEST PUSH0 DUP3 SSTORE DUP1 PUSH1 0x1F LT PUSH2 0x19E4 JUMPI POP POP JUMP JUMPDEST PUSH1 0x1F ADD PUSH1 0x20 SWAP1 DIV SWAP1 PUSH0 MSTORE PUSH1 0x20 PUSH0 KECCAK256 SWAP1 DUP2 ADD SWAP1 PUSH2 0x1A00 SWAP2 SWAP1 PUSH2 0x1A03 JUMP JUMPDEST POP JUMP JUMPDEST JUMPDEST DUP1 DUP3 GT ISZERO PUSH2 0x19A9 JUMPI PUSH0 DUP2 SSTORE PUSH1 0x1 ADD PUSH2 0x1A04 JUMP JUMPDEST PUSH1 0x1 PUSH1 0x1 PUSH1 0xE0 SHL SUB NOT DUP2 AND DUP2 EQ PUSH2 0x1A00 JUMPI PUSH0 DUP1 REVERT JUMPDEST PUSH0 PUSH1 0x20 DUP3 DUP5 SUB SLT ISZERO PUSH2 0x1A3C JUMPI PUSH0 DUP1 REVERT JUMPDEST DUP2 CALLDATALOAD PUSH2 0x15AA DUP2 PUSH2 0x1A17 JUMP JUMPDEST PUSH0 JUMPDEST DUP4 DUP2 LT ISZERO PUSH2 0x1A61 JUMPI DUP2 DUP2 ADD MLOAD DUP4 DUP3 ADD MSTORE PUSH1 0x20 ADD PUSH2 0x1A49 JUMP JUMPDEST POP POP PUSH0 SWAP2 ADD MSTORE JUMP JUMPDEST PUSH0 DUP2 MLOAD DUP1 DUP5 MSTORE PUSH2 0x1A80 DUP2 PUSH1 0x20 DUP7 ADD PUSH1 0x20 DUP7 ADD PUSH2 0x1A47 JUMP JUMPDEST PUSH1 0x1F ADD PUSH1 0x1F NOT AND SWAP3 SWAP1 SWAP3 ADD PUSH1 0x20 ADD SWAP3 SWAP2 POP POP JUMP JUMPDEST PUSH1 0x20 DUP2 MSTORE PUSH0 PUSH2 0x15AA PUSH1 0x20 DUP4 ADD DUP5 PUSH2 0x1A69 JUMP JUMPDEST PUSH0 PUSH1 0x20 DUP3 DUP5 SUB SLT ISZERO PUSH2 0x1AB6 JUMPI PUSH0 DUP1 REVERT JUMPDEST POP CALLDATALOAD SWAP2 SWAP1 POP JUMP JUMPDEST DUP1 CALLDATALOAD PUSH1 0x1 PUSH1 0x1 PUSH1 0xA0 SHL SUB DUP2 AND DUP2 EQ PUSH2 0x1AD3 JUMPI PUSH0 DUP1 REVERT JUMPDEST SWAP2 SWAP1 POP JUMP JUMPDEST PUSH0 DUP1 PUSH1 0x40 DUP4 DUP6 SUB SLT ISZERO PUSH2 0x1AE9 JUMPI PUSH0 DUP1 REVERT JUMPDEST PUSH2 0x1AF2 DUP4 PUSH2 0x1ABD JUMP JUMPDEST SWAP5 PUSH1 0x20 SWAP4 SWAP1 SWAP4 ADD CALLDATALOAD SWAP4 POP POP POP JUMP JUMPDEST PUSH0 DUP1 PUSH0 PUSH1 0x60 DUP5 DUP7 SUB SLT ISZERO PUSH2 0x1B12 JUMPI PUSH0 DUP1 REVERT JUMPDEST PUSH2 0x1B1B DUP5 PUSH2 0x1ABD JUMP JUMPDEST SWAP3 POP PUSH2 0x1B29 PUSH1 0x20 DUP6 ADD PUSH2 0x1ABD JUMP JUMPDEST SWAP2 POP PUSH1 0x40 DUP5 ADD CALLDATALOAD SWAP1 POP SWAP3 POP SWAP3 POP SWAP3 JUMP JUMPDEST PUSH0 PUSH1 0x20 DUP1 DUP4 MSTORE DUP4 MLOAD DUP2 DUP5 ADD MSTORE PUSH1 0x1 DUP1 PUSH1 0xA0 SHL SUB DUP2 DUP6 ADD MLOAD AND PUSH1 0x40 DUP5 ADD MSTORE PUSH1 0x40 DUP5 ADD MLOAD PUSH1 0xE0 PUSH1 0x60 DUP6 ADD MSTORE PUSH2 0x1B70 PUSH2 0x100 DUP6 ADD DUP3 PUSH2 0x1A69 JUMP JUMPDEST SWAP1 POP PUSH1 0x60 DUP6 ADD MLOAD PUSH1 0x1F NOT DUP1 DUP7 DUP5 SUB ADD PUSH1 0x80 DUP8 ADD MSTORE PUSH2 0x1B8E DUP4 DUP4 PUSH2 0x1A69 JUMP JUMPDEST SWAP3 POP PUSH1 0x80 DUP8 ADD MLOAD PUSH1 0xA0 DUP8 ADD MSTORE PUSH1 0xA0 DUP8 ADD MLOAD SWAP2 POP DUP1 DUP7 DUP5 SUB ADD PUSH1 0xC0 DUP8 ADD MSTORE DUP3 DUP3 MLOAD DUP1 DUP6 MSTORE DUP6 DUP6 ADD SWAP2 POP DUP6 DUP2 PUSH1 0x5 SHL DUP7 ADD ADD DUP7 DUP6 ADD SWAP5 POP PUSH0 JUMPDEST DUP3 DUP2 LT ISZERO PUSH2 0x1BF1 JUMPI DUP5 DUP8 DUP4 SUB ADD DUP5 MSTORE PUSH2 0x1BDF DUP3 DUP8 MLOAD PUSH2 0x1A69 JUMP JUMPDEST SWAP6 DUP9 ADD SWAP6 SWAP4 DUP9 ADD SWAP4 SWAP2 POP PUSH1 0x1 ADD PUSH2 0x1BC5 JUMP JUMPDEST POP PUSH1 0xC0 DUP11 ADD MLOAD DUP1 ISZERO ISZERO PUSH1 0xE0 DUP12 ADD MSTORE SWAP7 POP SWAP10 SWAP9 POP POP POP POP POP POP POP POP POP JUMP JUMPDEST PUSH0 DUP1 PUSH1 0x40 DUP4 DUP6 SUB SLT ISZERO PUSH2 0x1C1F JUMPI PUSH0 DUP1 REVERT JUMPDEST POP POP DUP1 CALLDATALOAD SWAP3 PUSH1 0x20 SWAP1 SWAP2 ADD CALLDATALOAD SWAP2 POP JUMP JUMPDEST DUP7 DUP2 MSTORE PUSH1 0x1 PUSH1 0x1 PUSH1 0xA0 SHL SUB DUP7 AND PUSH1 0x20 DUP3 ADD MSTORE PUSH1 0xC0 PUSH1 0x40 DUP3 ADD DUP2 SWAP1 MSTORE PUSH0 SWAP1 PUSH2 0x1C57 SWAP1 DUP4 ADD DUP8 PUSH2 0x1A69 JUMP JUMPDEST DUP3 DUP2 SUB PUSH1 0x60 DUP5 ADD MSTORE PUSH2 0x1C69 DUP2 DUP8 PUSH2 0x1A69 JUMP JUMPDEST PUSH1 0x80 DUP5 ADD SWAP6 SWAP1 SWAP6 MSTORE POP POP SWAP1 ISZERO ISZERO PUSH1 0xA0 SWAP1 SWAP2 ADD MSTORE SWAP5 SWAP4 POP POP POP POP JUMP JUMPDEST PUSH4 0x4E487B71 PUSH1 0xE0 SHL PUSH0 MSTORE PUSH1 0x41 PUSH1 0x4 MSTORE PUSH1 0x24 PUSH0 REVERT JUMPDEST PUSH1 0x40 MLOAD PUSH1 0x1F DUP3 ADD PUSH1 0x1F NOT AND DUP2 ADD PUSH8 0xFFFFFFFFFFFFFFFF DUP2 GT DUP3 DUP3 LT OR ISZERO PUSH2 0x1CC1 JUMPI PUSH2 0x1CC1 PUSH2 0x1C84 JUMP JUMPDEST PUSH1 0x40 MSTORE SWAP2 SWAP1 POP JUMP JUMPDEST PUSH0 PUSH8 0xFFFFFFFFFFFFFFFF DUP4 GT ISZERO PUSH2 0x1CE2 JUMPI PUSH2 0x1CE2 PUSH2 0x1C84 JUMP JUMPDEST PUSH2 0x1CF5 PUSH1 0x1F DUP5 ADD PUSH1 0x1F NOT AND PUSH1 0x20 ADD PUSH2 0x1C98 JUMP JUMPDEST SWAP1 POP DUP3 DUP2 MSTORE DUP4 DUP4 DUP4 ADD GT ISZERO PUSH2 0x1D08 JUMPI PUSH0 DUP1 REVERT JUMPDEST DUP3 DUP3 PUSH1 0x20 DUP4 ADD CALLDATACOPY PUSH0 PUSH1 0x20 DUP5 DUP4 ADD ADD MSTORE SWAP4 SWAP3 POP POP POP JUMP JUMPDEST PUSH0 DUP3 PUSH1 0x1F DUP4 ADD SLT PUSH2 0x1D2D JUMPI PUSH0 DUP1 REVERT JUMPDEST PUSH2 0x15AA DUP4 DUP4 CALLDATALOAD PUSH1 0x20 DUP6 ADD PUSH2 0x1CC9 JUMP JUMPDEST PUSH0 DUP1 PUSH0 DUP1 PUSH0 PUSH1 0xA0 DUP7 DUP9 SUB SLT ISZERO PUSH2 0x1D50 JUMPI PUSH0 DUP1 REVERT JUMPDEST DUP6 CALLDATALOAD PUSH8 0xFFFFFFFFFFFFFFFF DUP1 DUP3 GT ISZERO PUSH2 0x1D67 JUMPI PUSH0 DUP1 REVERT JUMPDEST PUSH2 0x1D73 DUP10 DUP4 DUP11 ADD PUSH2 0x1D1E JUMP JUMPDEST SWAP7 POP PUSH1 0x20 SWAP2 POP DUP2 DUP9 ADD CALLDATALOAD DUP2 DUP2 GT ISZERO PUSH2 0x1D89 JUMPI PUSH0 DUP1 REVERT JUMPDEST PUSH2 0x1D95 DUP11 DUP3 DUP12 ADD PUSH2 0x1D1E JUMP JUMPDEST SWAP7 POP POP PUSH1 0x40 DUP9 ADD CALLDATALOAD DUP2 DUP2 GT ISZERO PUSH2 0x1DA9 JUMPI PUSH0 DUP1 REVERT JUMPDEST PUSH2 0x1DB5 DUP11 DUP3 DUP12 ADD PUSH2 0x1D1E JUMP JUMPDEST SWAP6 POP POP PUSH1 0x60 DUP9 ADD CALLDATALOAD SWAP4 POP PUSH1 0x80 DUP9 ADD CALLDATALOAD DUP2 DUP2 GT ISZERO PUSH2 0x1DD0 JUMPI PUSH0 DUP1 REVERT JUMPDEST DUP9 ADD PUSH1 0x1F DUP2 ADD DUP11 SGT PUSH2 0x1DE0 JUMPI PUSH0 DUP1 REVERT JUMPDEST DUP1 CALLDATALOAD DUP3 DUP2 GT ISZERO PUSH2 0x1DF2 JUMPI PUSH2 0x1DF2 PUSH2 0x1C84 JUMP JUMPDEST DUP1 PUSH1 0x5 SHL PUSH2 0x1E01 DUP6 DUP3 ADD PUSH2 0x1C98 JUMP JUMPDEST SWAP2 DUP3 MSTORE DUP3 DUP2 ADD DUP6 ADD SWAP2 DUP6 DUP2 ADD SWAP1 DUP14 DUP5 GT ISZERO PUSH2 0x1E1A JUMPI PUSH0 DUP1 REVERT JUMPDEST DUP7 DUP6 ADD SWAP3 POP JUMPDEST DUP4 DUP4 LT ISZERO PUSH2 0x1E54 JUMPI DUP3 CALLDATALOAD DUP7 DUP2 GT ISZERO PUSH2 0x1E36 JUMPI PUSH0 DUP1 REVERT JUMPDEST PUSH2 0x1E44 DUP16 DUP10 DUP4 DUP10 ADD ADD PUSH2 0x1D1E JUMP JUMPDEST DUP4 MSTORE POP SWAP2 DUP7 ADD SWAP2 SWAP1 DUP7 ADD SWAP1 PUSH2 0x1E20 JUMP JUMPDEST DUP1 SWAP8 POP POP POP POP POP POP POP POP SWAP3 SWAP6 POP SWAP3 SWAP6 SWAP1 SWAP4 POP JUMP JUMPDEST PUSH0 PUSH1 0x20 DUP3 DUP5 SUB SLT ISZERO PUSH2 0x1E78 JUMPI PUSH0 DUP1 REVERT JUMPDEST PUSH2 0x15AA DUP3 PUSH2 0x1ABD JUMP JUMPDEST PUSH0 DUP1 PUSH1 0x40 DUP4 DUP6 SUB SLT ISZERO PUSH2 0x1E92 JUMPI PUSH0 DUP1 REVERT JUMPDEST PUSH2 0x1E9B DUP4 PUSH2 0x1ABD JUMP JUMPDEST SWAP2 POP PUSH1 0x20 DUP4 ADD CALLDATALOAD DUP1 ISZERO ISZERO DUP2 EQ PUSH2 0x1EAF JUMPI PUSH0 DUP1 REVERT JUMPDEST DUP1 SWAP2 POP POP SWAP3 POP SWAP3 SWAP1 POP JUMP JUMPDEST PUSH0 DUP1 PUSH0 DUP1 PUSH1 0x80 DUP6 DUP8 SUB SLT ISZERO PUSH2 0x1ECD JUMPI PUSH0 DUP1 REVERT JUMPDEST PUSH2 0x1ED6 DUP6 PUSH2 0x1ABD JUMP JUMPDEST SWAP4 POP PUSH2 0x1EE4 PUSH1 0x20 DUP7 ADD PUSH2 0x1ABD JUMP JUMPDEST SWAP3 POP PUSH1 0x40 DUP6 ADD CALLDATALOAD SWAP2 POP PUSH1 0x60 DUP6 ADD CALLDATALOAD PUSH8 0xFFFFFFFFFFFFFFFF DUP2 GT ISZERO PUSH2 0x1F06 JUMPI PUSH0 DUP1 REVERT JUMPDEST DUP6 ADD PUSH1 0x1F DUP2 ADD DUP8 SGT PUSH2 0x1F16 JUMPI PUSH0 DUP1 REVERT JUMPDEST PUSH2 0x1F25 DUP8 DUP3 CALLDATALOAD PUSH1 0x20 DUP5 ADD PUSH2 0x1CC9 JUMP JUMPDEST SWAP2 POP POP SWAP3 SWAP6 SWAP2 SWAP5 POP SWAP3 POP JUMP JUMPDEST PUSH0 DUP1 PUSH1 0x40 DUP4 DUP6 SUB SLT ISZERO PUSH2 0x1F42 JUMPI PUSH0 DUP1 REVERT JUMPDEST PUSH2 0x1F4B DUP4 PUSH2 0x1ABD JUMP JUMPDEST SWAP2 POP PUSH2 0x1F59 PUSH1 0x20 DUP5 ADD PUSH2 0x1ABD JUMP JUMPDEST SWAP1 POP SWAP3 POP SWAP3 SWAP1 POP JUMP JUMPDEST PUSH1 0x1 DUP2 DUP2 SHR SWAP1 DUP3 AND DUP1 PUSH2 0x1F76 JUMPI PUSH1 0x7F DUP3 AND SWAP2 POP JUMPDEST PUSH1 0x20 DUP3 LT DUP2 SUB PUSH2 0x1F94 JUMPI PUSH4 0x4E487B71 PUSH1 0xE0 SHL PUSH0 MSTORE PUSH1 0x22 PUSH1 0x4 MSTORE PUSH1 0x24 PUSH0 REVERT JUMPDEST POP SWAP2 SWAP1 POP JUMP JUMPDEST PUSH1 0x1F DUP3 GT ISZERO PUSH2 0xC66 JUMPI DUP1 PUSH0 MSTORE PUSH1 0x20 PUSH0 KECCAK256 PUSH1 0x1F DUP5 ADD PUSH1 0x5 SHR DUP2 ADD PUSH1 0x20 DUP6 LT ISZERO PUSH2 0x1FBF JUMPI POP DUP1 JUMPDEST PUSH1 0x1F DUP5 ADD PUSH1 0x5 SHR DUP3 ADD SWAP2 POP JUMPDEST DUP2 DUP2 LT ISZERO PUSH2 0x149A JUMPI PUSH0 DUP2 SSTORE PUSH1 0x1 ADD PUSH2 0x1FCB JUMP JUMPDEST DUP2 MLOAD PUSH8 0xFFFFFFFFFFFFFFFF DUP2 GT ISZERO PUSH2 0x1FF8 JUMPI PUSH2 0x1FF8 PUSH2 0x1C84 JUMP JUMPDEST PUSH2 0x200C DUP2 PUSH2 0x2006 DUP5 SLOAD PUSH2 0x1F62 JUMP JUMPDEST DUP5 PUSH2 0x1F9A JUMP JUMPDEST PUSH1 0x20 DUP1 PUSH1 0x1F DUP4 GT PUSH1 0x1 DUP2 EQ PUSH2 0x203F JUMPI PUSH0 DUP5 ISZERO PUSH2 0x2028 JUMPI POP DUP6 DUP4 ADD MLOAD JUMPDEST PUSH0 NOT PUSH1 0x3 DUP7 SWAP1 SHL SHR NOT AND PUSH1 0x1 DUP6 SWAP1 SHL OR DUP6 SSTORE PUSH2 0x1498 JUMP JUMPDEST PUSH0 DUP6 DUP2 MSTORE PUSH1 0x20 DUP2 KECCAK256 PUSH1 0x1F NOT DUP7 AND SWAP2 JUMPDEST DUP3 DUP2 LT ISZERO PUSH2 0x206D JUMPI DUP9 DUP7 ADD MLOAD DUP3 SSTORE SWAP5 DUP5 ADD SWAP5 PUSH1 0x1 SWAP1 SWAP2 ADD SWAP1 DUP5 ADD PUSH2 0x204E JUMP JUMPDEST POP DUP6 DUP3 LT ISZERO PUSH2 0x208A JUMPI DUP8 DUP6 ADD MLOAD PUSH0 NOT PUSH1 0x3 DUP9 SWAP1 SHL PUSH1 0xF8 AND SHR NOT AND DUP2 SSTORE JUMPDEST POP POP POP POP POP PUSH1 0x1 SWAP1 DUP2 SHL ADD SWAP1 SSTORE POP JUMP JUMPDEST PUSH1 0x40 DUP2 MSTORE PUSH0 PUSH2 0x20AC PUSH1 0x40 DUP4 ADD DUP6 PUSH2 0x1A69 JUMP JUMPDEST SWAP1 POP DUP3 PUSH1 0x20 DUP4 ADD MSTORE SWAP4 SWAP3 POP POP POP JUMP JUMPDEST PUSH0 PUSH1 0x1 DUP3 ADD PUSH2 0x20D8 JUMPI PUSH4 0x4E487B71 PUSH1 0xE0 SHL PUSH0 MSTORE PUSH1 0x11 PUSH1 0x4 MSTORE PUSH1 0x24 PUSH0 REVERT JUMPDEST POP PUSH1 0x1 ADD SWAP1 JUMP JUMPDEST PUSH0 DUP4 MLOAD PUSH2 0x20F0 DUP2 DUP5 PUSH1 0x20 DUP9 ADD PUSH2 0x1A47 JUMP JUMPDEST DUP4 MLOAD SWAP1 DUP4 ADD SWAP1 PUSH2 0x2104 DUP2 DUP4 PUSH1 0x20 DUP9 ADD PUSH2 0x1A47 JUMP JUMPDEST ADD SWAP5 SWAP4 POP POP POP POP JUMP JUMPDEST PUSH1 0x1 PUSH1 0x1 PUSH1 0xA0 SHL SUB DUP6 DUP2 AND DUP3 MSTORE DUP5 AND PUSH1 0x20 DUP3 ADD MSTORE PUSH1 0x40 DUP2 ADD DUP4 SWAP1 MSTORE PUSH1 0x80 PUSH1 0x60 DUP3 ADD DUP2 SWAP1 MSTORE PUSH0 SWAP1 PUSH2 0x213F SWAP1 DUP4 ADD DUP5 PUSH2 0x1A69 JUMP JUMPDEST SWAP7 SWAP6 POP POP POP POP POP POP JUMP JUMPDEST PUSH0 PUSH1 0x20 DUP3 DUP5 SUB SLT ISZERO PUSH2 0x2159 JUMPI PUSH0 DUP1 REVERT JUMPDEST DUP2 MLOAD PUSH2 0x15AA DUP2 PUSH2 0x1A17 JUMP INVALID LOG2 PUSH5 0x6970667358 0x22 SLT KECCAK256 0x1E 0xC4 0xEE 0xB4 0xBA CALLDATACOPY 0xBD PUSH27 0x20CBCA9EAF7AC4EF6BC4E803E742EB507DC4EB9E477C7E4864736F PUSH13 0x63430008180033000000000000 "},"methodIdentifiers":{"agents(uint256)":"513856c8","approve(address,uint256)":"095ea7b3","balanceOf(address)":"70a08231","getAgent(uint256)":"2de5aaf7","getApproved(uint256)":"081812fc","isApprovedForAll(address,address)":"e985e9c5","name()":"06fdde03","nextAgentId()":"30efc498","ownerOf(uint256)":"6352211e","payAndCallAgent(uint256)":"32e08579","registerAgent(string,string,string,uint256,string[])":"690535b0","safeTransferFrom(address,address,uint256)":"42842e0e","safeTransferFrom(address,address,uint256,bytes)":"b88d4fde","setApprovalForAll(address,bool)":"a22cb465","supportsInterface(bytes4)":"01ffc9a7","symbol()":"95d89b41","toggleAgentActive(uint256)":"966b0f66","tokenURI(uint256)":"c87b56dd","transferFrom(address,address,uint256)":"23b872dd","updateServiceFee(uint256,uint256)":"33652310"}}}}}