{
  "_format": "hh-sol-artifact-1",
  "contractName": "AgentRegistry",
  "sourceName": "contracts/AgentRegistry.sol",
  "abi": [
    {
      "inputs": [],
      "stateMutability": "nonpayable",
      "type": "constructor"
    },
    {
      "inputs": [
        {
          "internalType": "address",
          "name": "sender",
          "type": "address"
        },
        {
          "internalType": "uint256",
          "name": "tokenId",
          "type": "uint256"
        },
        {
          "internalType": "address",
          "name": "owner",
          "type": "address"
        }
      ],
      "name": "ERC721IncorrectOwner",
      "type": "error"
    },
    {
      "inputs": [
        {
          "internalType": "address",
          "name": "operator",
          "type": "address"
        },
        {
          "internalType": "uint256",
          "name": "tokenId",
          "type": "uint256"
        }
      ],
      "name": "ERC721InsufficientApproval",
      "type": "error"
    },
    {
      "inputs": [
        {
          "internalType": "address",
          "name": "approver",
          "type": "address"
        }
      ],
      "name": "ERC721InvalidApprover",
      "type": "error"
    },
    {
      "inputs": [
        {
          "internalType": "address",
          "name": "operator",
          "type": "address"
        }
      ],
      "name": "ERC721InvalidOperator",
      "type": "error"
    },
    {
      "inputs": [
        {
          "internalType": "address",
          "name": "owner",
          "type": "address"
        }
      ],
      "name": "ERC721InvalidOwner",
      "type": "error"
    },
    {
      "inputs": [
        {
          "internalType": "address",
          "name": "receiver",
          "type": "address"
        }
      ],
      "name": "ERC721InvalidReceiver",
      "type": "error"
    },
    {
      "inputs": [
        {
          "internalType": "address",
          "name": "sender",
          "type": "address"
        }
      ],
      "name": "ERC721InvalidSender",
      "type": "error"
    },
    {
      "inputs": [
        {
          "internalType": "uint256",
          "name": "tokenId",
          "type": "uint256"
        }
      ],
      "name": "ERC721NonexistentToken",
      "type": "error"
    },
    {
      "anonymous": false,
      "inputs": [
        {
          "indexed": true,
          "internalType": "uint256",
          "name": "id",
          "type": "uint256"
        },
        {
          "indexed": true,
          "internalType": "address",
          "name": "caller",
          "type": "address"
        },
        {
          "indexed": false,
          "internalType": "uint256",
          "name": "feePaid",
          "type": "uint256"
        }
      ],
      "name": "AgentCalled",
      "type": "event"
    },
    {
      "anonymous": false,
      "inputs": [
        {
          "indexed": true,
          "internalType": "uint256",
          "name": "id",
          "type": "uint256"
        },
        {
          "indexed": true,
          "internalType": "address",
          "name": "owner",
          "type": "address"
        },
        {
          "indexed": false,
          "internalType": "string",
          "name": "name",
          "type": "string"
        },
        {
          "indexed": false,
          "internalType": "uint256",
          "name": "serviceFee",
          "type": "uint256"
        }
      ],
      "name": "AgentRegistered",
      "type": "event"
    },
    {
      "anonymous": false,
      "inputs": [
        {
          "indexed": true,
          "internalType": "address",
          "name": "owner",
          "type": "address"
        },
        {
          "indexed": true,
          "internalType": "address",
          "name": "approved",
          "type": "address"
        },
        {
          "indexed": true,
          "internalType": "uint256",
          "name": "tokenId",
          "type": "uint256"
        }
      ],
      "name": "Approval",
      "type": "event"
    },
    {
      "anonymous": false,
      "inputs": [
        {
          "indexed": true,
          "internalType": "address",
          "name": "owner",
          "type": "address"
        },
        {
          "indexed": true,
          "internalType": "address",
          "name": "operator",
          "type": "address"
        },
        {
          "indexed": false,
          "internalType": "bool",
          "name": "approved",
          "type": "bool"
        }
      ],
      "name": "ApprovalForAll",
      "type": "event"
    },
    {
      "anonymous": false,
      "inputs": [
        {
          "indexed": false,
          "internalType": "uint256",
          "name": "_fromTokenId",
          "type": "uint256"
        },
        {
          "indexed": false,
          "internalType": "uint256",
          "name": "_toTokenId",
          "type": "uint256"
        }
      ],
      "name": "BatchMetadataUpdate",
      "type": "event"
    },
    {
      "anonymous": false,
      "inputs": [
        {
          "indexed": false,
          "internalType": "uint256",
          "name": "_tokenId",
          "type": "uint256"
        }
      ],
      "name": "MetadataUpdate",
      "type": "event"
    },
    {
      "anonymous": false,
      "inputs": [
        {
          "indexed": true,
          "internalType": "uint256",
          "name": "id",
          "type": "uint256"
        },
        {
          "indexed": false,
          "internalType": "uint256",
          "name": "newFee",
          "type": "uint256"
        }
      ],
      "name": "ServiceFeeUpdated",
      "type": "event"
    },
    {
      "anonymous": false,
      "inputs": [
        {
          "indexed": true,
          "internalType": "address",
          "name": "from",
          "type": "address"
        },
        {
          "indexed": true,
          "internalType": "address",
          "name": "to",
          "type": "address"
        },
        {
          "indexed": true,
          "internalType": "uint256",
          "name": "tokenId",
          "type": "uint256"
        }
      ],
      "name": "Transfer",
      "type": "event"
    },
    {
      "inputs": [
        {
          "internalType": "uint256",
          "name": "",
          "type": "uint256"
        }
      ],
      "name": "agents",
      "outputs": [
        {
          "internalType": "uint256",
          "name": "id",
          "type": "uint256"
        },
        {
          "internalType": "address",
          "name": "owner",
          "type": "address"
        },
        {
          "internalType": "string",
          "name": "name",
          "type": "string"
        },
        {
          "internalType": "string",
          "name": "description",
          "type": "string"
        },
        {
          "internalType": "uint256",
          "name": "serviceFee",
          "type": "uint256"
        },
        {
          "internalType": "bool",
          "name": "active",
          "type": "bool"
        }
      ],
      "stateMutability": "view",
      "type": "function"
    },
    {
      "inputs": [
        {
          "internalType": "address",
          "name": "to",
          "type": "address"
        },
        {
          "internalType": "uint256",
          "name": "tokenId",
          "type": "uint256"
        }
      ],
      "name": "approve",
      "outputs": [],
      "stateMutability": "nonpayable",
      "type": "function"
    },
    {
      "inputs": [
        {
          "internalType": "address",
          "name": "owner",
          "type": "address"
        }
      ],
      "name": "balanceOf",
      "outputs": [
        {
          "internalType": "uint256",
          "name": "",
          "type": "uint256"
        }
      ],
      "stateMutability": "view",
      "type": "function"
    },
    {
      "inputs": [
        {
          "internalType": "uint256",
          "name": "id",
          "type": "uint256"
        }
      ],
      "name": "getAgent",
      "outputs": [
        {
          "components": [
            {
              "internalType": "uint256",
              "name": "id",
              "type": "uint256"
            },
            {
              "internalType": "address",
              "name": "owner",
              "type": "address"
            },
            {
              "internalType": "string",
              "name": "name",
              "type": "string"
            },
            {
              "internalType": "string",
              "name": "description",
              "type": "string"
            },
            {
              "internalType": "uint256",
              "name": "serviceFee",
              "type": "uint256"
            },
            {
              "internalType": "string[]",
              "name": "capabilities",
              "type": "string[]"
            },
            {
              "internalType": "bool",
              "name": "active",
              "type": "bool"
            }
          ],
          "internalType": "struct AgentRegistry.Agent",
          "name": "",
          "type": "tuple"
        }
      ],
      "stateMutability": "view",
      "type": "function"
    },
    {
      "inputs": [
        {
          "internalType": "uint256",
          "name": "tokenId",
          "type": "uint256"
        }
      ],
      "name": "getApproved",
      "outputs": [
        {
          "internalType": "address",
          "name": "",
          "type": "address"
        }
      ],
      "stateMutability": "view",
      "type": "function"
    },
    {
      "inputs": [
        {
          "internalType": "address",
          "name": "owner",
          "type": "address"
        },
        {
          "internalType": "address",
          "name": "operator",
          "type": "address"
        }
      ],
      "name": "isApprovedForAll",
      "outputs": [
        {
          "internalType": "bool",
          "name": "",
          "type": "bool"
        }
      ],
      "stateMutability": "view",
      "type": "function"
    },
    {
      "inputs": [],
      "name": "name",
      "outputs": [
        {
          "internalType": "string",
          "name": "",
          "type": "string"
        }
      ],
      "stateMutability": "view",
      "type": "function"
    },
    {
      "inputs": [],
      "name": "nextAgentId",
      "outputs": [
        {
          "internalType": "uint256",
          "name": "",
          "type": "uint256"
        }
      ],
      "stateMutability": "view",
      "type": "function"
    },
    {
      "inputs": [
        {
          "internalType": "uint256",
          "name": "tokenId",
          "type": "uint256"
        }
      ],
      "name": "ownerOf",
      "outputs": [
        {
          "internalType": "address",
          "name": "",
          "type": "address"
        }
      ],
      "stateMutability": "view",
      "type": "function"
    },
    {
      "inputs": [
        {
          "internalType": "uint256",
          "name": "agentId",
          "type": "uint256"
        }
      ],
      "name": "payAndCallAgent",
      "outputs": [],
      "stateMutability": "payable",
      "type": "function"
    },
    {
      "inputs": [
        {
          "internalType": "string",
          "name": "name",
          "type": "string"
        },
        {
          "internalType": "string",
          "name": "description",
          "type": "string"
        },
        {
          "internalType": "string",
          "name": "tokenURI",
          "type": "string"
        },
        {
          "internalType": "uint256",
          "name": "serviceFee",
          "type": "uint256"
        },
        {
          "internalType": "string[]",
          "name": "capabilities",
          "type": "string[]"
        }
      ],
      "name": "registerAgent",
      "outputs": [
        {
          "internalType": "uint256",
          "name": "",
          "type": "uint256"
        }
      ],
      "stateMutability": "nonpayable",
      "type": "function"
    },
    {
      "inputs": [
        {
          "internalType": "address",
          "name": "from",
          "type": "address"
        },
        {
          "internalType": "address",
          "name": "to",
          "type": "address"
        },
        {
          "internalType": "uint256",
          "name": "tokenId",
          "type": "uint256"
        }
      ],
      "name": "safeTransferFrom",
      "outputs": [],
      "stateMutability": "nonpayable",
      "type": "function"
    },
    {
      "inputs": [
        {
          "internalType": "address",
          "name": "from",
          "type": "address"
        },
        {
          "internalType": "address",
          "name": "to",
          "type": "address"
        },
        {
          "internalType": "uint256",
          "name": "tokenId",
          "type": "uint256"
        },
        {
          "internalType": "bytes",
          "name": "data",
          "type": "bytes"
        }
      ],
      "name": "safeTransferFrom",
      "outputs": [],
      "stateMutability": "nonpayable",
      "type": "function"
    },
    {
      "inputs": [
        {
          "internalType": "address",
          "name": "operator",
          "type": "address"
        },
        {
          "internalType": "bool",
          "name": "approved",
          "type": "bool"
        }
      ],
      "name": "setApprovalForAll",
      "outputs": [],
      "stateMutability": "nonpayable",
      "type": "function"
    },
    {
      "inputs": [
        {
          "internalType": "bytes4",
          "name": "interfaceId",
          "type": "bytes4"
        }
      ],
      "name": "supportsInterface",
      "outputs": [
        {
          "internalType": "bool",
          "name": "",
          "type": "bool"
        }
      ],
      "stateMutability": "view",
      "type": "function"
    },
    {
      "inputs": [],
      "name": "symbol",
      "outputs": [
        {
          "internalType": "string",
          "name": "",
          "type": "string"
        }
      ],
      "stateMutability": "view",
      "type": "function"
    },
    {
      "inputs": [
        {
          "internalType": "uint256",
          "name": "agentId",
          "type": "uint256"
        }
      ],
      "name": "toggleAgentActive",
      "outputs": [],
      "stateMutability": "nonpayable",
      "type": "function"
    },
    {
      "inputs": [
        {
          "internalType": "uint256",
          "name": "tokenId",
          "type": "uint256"
        }
      ],
      "name": "tokenURI",
      "outputs": [
        {
          "internalType": "string",
          "name": "",
          "type": "string"
        }
      ],
      "stateMutability": "view",
      "type": "function"
    },
    {
      "inputs": [
        {
          "internalType": "address",
          "name": "from",
          "type": "address"
        },
        {
          "internalType": "address",
          "name": "to",
          "type": "address"
        },
        {
          "internalType": "uint256",
          "name": "tokenId",
          "type": "uint256"
        }
      ],
      "name": "transferFrom",
      "outputs": [],
      "stateMutability": "nonpayable",
      "type": "function"
    },
    {
      "inputs": [
        {
          "internalType": "uint256",
          "name": "agentId",
          "type": "uint256"
        },
        {
          "internalType": "uint256",
          "name": "newFee",
          "type": "uint256"
        }
      ],
      "name": "updateServiceFee",
      "outputs": [],
      "stateMutability": "nonpayable",
      "type": "function"
    }
  ],
  "bytecode": "0x608060405234801562000010575f80fd5b506040518060400160405280601481526020017f4d6f6e6164204167656e74205265676973747279000000000000000000000000815250604051806040016040528060098152602001681353d38b5051d1539560ba1b815250815f90816200007991906200012f565b5060016200008882826200012f565b505050620001fb565b634e487b7160e01b5f52604160045260245ffd5b600181811c90821680620000ba57607f821691505b602082108103620000d957634e487b7160e01b5f52602260045260245ffd5b50919050565b601f8211156200012a57805f5260205f20601f840160051c81016020851015620001065750805b601f840160051c820191505b8181101562000127575f815560010162000112565b50505b505050565b81516001600160401b038111156200014b576200014b62000091565b62000163816200015c8454620000a5565b84620000df565b602080601f83116001811462000199575f8415620001815750858301515b5f19600386901b1c1916600185901b178555620001f3565b5f85815260208120601f198616915b82811015620001c957888601518255948401946001909101908401620001a8565b5085821015620001e757878501515f19600388901b60f8161c191681555b505060018460011b0185555b505050505050565b61219a80620002095f395ff3fe60806040526004361061011b575f3560e01c8063513856c81161009d578063966b0f6611610062578063966b0f661461032d578063a22cb4651461034c578063b88d4fde1461036b578063c87b56dd1461038a578063e985e9c5146103a9575f80fd5b8063513856c81461028b5780636352211e146102bc578063690535b0146102db57806370a08231146102fa57806395d89b4114610319575f80fd5b80632de5aaf7116100e35780632de5aaf7146101eb57806330efc4981461021757806332e085791461023a578063336523101461024d57806342842e0e1461026c575f80fd5b806301ffc9a71461011f57806306fdde0314610153578063081812fc14610174578063095ea7b3146101ab57806323b872dd146101cc575b5f80fd5b34801561012a575f80fd5b5061013e610139366004611a2c565b6103c8565b60405190151581526020015b60405180910390f35b34801561015e575f80fd5b506101676103f2565b60405161014a9190611a94565b34801561017f575f80fd5b5061019361018e366004611aa6565b610481565b6040516001600160a01b03909116815260200161014a565b3480156101b6575f80fd5b506101ca6101c5366004611ad8565b6104a8565b005b3480156101d7575f80fd5b506101ca6101e6366004611b00565b6104b7565b3480156101f6575f80fd5b5061020a610205366004611aa6565b610545565b60405161014a9190611b39565b348015610222575f80fd5b5061022c60075481565b60405190815260200161014a565b6101ca610248366004611aa6565b6107da565b348015610258575f80fd5b506101ca610267366004611c0e565b610b9a565b348015610277575f80fd5b506101ca610286366004611b00565b610c4c565b348015610296575f80fd5b506102aa6102a5366004611aa6565b610c6b565b60405161014a96959493929190611c2e565b3480156102c7575f80fd5b506101936102d6366004611aa6565b610db9565b3480156102e6575f80fd5b5061022c6102f5366004611d3c565b610dc3565b348015610305575f80fd5b5061022c610314366004611e68565b610f12565b348015610324575f80fd5b50610167610f57565b348015610338575f80fd5b506101ca610347366004611aa6565b610f66565b348015610357575f80fd5b506101ca610366366004611e81565b610ff3565b348015610376575f80fd5b506101ca610385366004611eba565b610ffe565b348015610395575f80fd5b506101676103a4366004611aa6565b611016565b3480156103b4575f80fd5b5061013e6103c3366004611f31565b611097565b5f6001600160e01b03198216632483248360e11b14806103ec57506103ec826110c4565b92915050565b60605f805461040090611f62565b80601f016020809104026020016040519081016040528092919081815260200182805461042c90611f62565b80156104775780601f1061044e57610100808354040283529160200191610477565b820191905f5260205f20905b81548152906001019060200180831161045a57829003601f168201915b5050505050905090565b5f61048b82611113565b505f828152600460205260409020546001600160a01b03166103ec565b6104b382823361114b565b5050565b6001600160a01b0382166104e557604051633250574960e11b81525f60048201526024015b60405180910390fd5b5f6104f1838333611158565b9050836001600160a01b0316816001600160a01b03161461053f576040516364283d7b60e01b81526001600160a01b03808616600483015260248201849052821660448201526064016104dc565b50505050565b61058c6040518060e001604052805f81526020015f6001600160a01b0316815260200160608152602001606081526020015f8152602001606081526020015f151581525090565b5f82815260086020908152604091829020825160e0810184528154815260018201546001600160a01b03169281019290925260028101805492939192918401916105d590611f62565b80601f016020809104026020016040519081016040528092919081815260200182805461060190611f62565b801561064c5780601f106106235761010080835404028352916020019161064c565b820191905f5260205f20905b81548152906001019060200180831161062f57829003601f168201915b5050505050815260200160038201805461066590611f62565b80601f016020809104026020016040519081016040528092919081815260200182805461069190611f62565b80156106dc5780601f106106b3576101008083540402835291602001916106dc565b820191905f5260205f20905b8154815290600101906020018083116106bf57829003601f168201915b505050505081526020016004820154815260200160058201805480602002602001604051908101604052809291908181526020015f905b828210156107bb578382905f5260205f2001805461073090611f62565b80601f016020809104026020016040519081016040528092919081815260200182805461075c90611f62565b80156107a75780601f1061077e576101008083540402835291602001916107a7565b820191905f5260205f20905b81548152906001019060200180831161078a57829003601f168201915b505050505081526020019060010190610713565b505050908252506006919091015460ff16151560209091015292915050565b5f818152600860209081526040808320815160e0810183528154815260018201546001600160a01b031693810193909352600281018054919284019161081f90611f62565b80601f016020809104026020016040519081016040528092919081815260200182805461084b90611f62565b80156108965780601f1061086d57610100808354040283529160200191610896565b820191905f5260205f20905b81548152906001019060200180831161087957829003601f168201915b505050505081526020016003820180546108af90611f62565b80601f01602080910402602001604051908101604052809291908181526020018280546108db90611f62565b80156109265780601f106108fd57610100808354040283529160200191610926565b820191905f5260205f20905b81548152906001019060200180831161090957829003601f168201915b505050505081526020016004820154815260200160058201805480602002602001604051908101604052809291908181526020015f905b82821015610a05578382905f5260205f2001805461097a90611f62565b80601f01602080910402602001604051908101604052809291908181526020018280546109a690611f62565b80156109f15780601f106109c8576101008083540402835291602001916109f1565b820191905f5260205f20905b8154815290600101906020018083116109d457829003601f168201915b50505050508152602001906001019061095d565b505050908252506006919091015460ff16151560209091015260c0810151909150610a665760405162461bcd60e51b81526020600482015260116024820152704167656e7420697320696e61637469766560781b60448201526064016104dc565b8060800151341015610aba5760405162461bcd60e51b815260206004820152601d60248201527f496e73756666696369656e742073657276696365206665652073656e7400000060448201526064016104dc565b608081015115610b5f575f81602001516001600160a01b0316346040515f6040518083038185875af1925050503d805f8114610b11576040519150601f19603f3d011682016040523d82523d5f602084013e610b16565b606091505b5050905080610b5d5760405162461bcd60e51b8152602060048201526013602482015272151c985b9cd9995c881999594819985a5b1959606a1b60448201526064016104dc565b505b604051348152339083907f4aaba6099eb20f6af209c4bf785ff01746afd56a22c08d54e9936538510c5afc9060200160405180910390a35050565b33610ba483610db9565b6001600160a01b031614610bfa5760405162461bcd60e51b815260206004820152601f60248201527f4f6e6c79206167656e74206f776e65722063616e20757064617465206665650060448201526064016104dc565b5f82815260086020526040908190206004018290555182907e3b413cf14a67407425bd0b5c065b2de08876554d8489ad7dd4aa95604d280c90610c409084815260200190565b60405180910390a25050565b610c6683838360405180602001604052805f815250610ffe565b505050565b60086020525f908152604090208054600182015460028301805492936001600160a01b0390921692610c9c90611f62565b80601f0160208091040260200160405190810160405280929190818152602001828054610cc890611f62565b8015610d135780601f10610cea57610100808354040283529160200191610d13565b820191905f5260205f20905b815481529060010190602001808311610cf657829003601f168201915b505050505090806003018054610d2890611f62565b80601f0160208091040260200160405190810160405280929190818152602001828054610d5490611f62565b8015610d9f5780601f10610d7657610100808354040283529160200191610d9f565b820191905f5260205f20905b815481529060010190602001808311610d8257829003601f168201915b50505050600483015460069093015491929160ff16905086565b5f6103ec82611113565b6007545f90610dd2338261124a565b610ddc8186611263565b6040805160e0810182528281523360208083019182528284018b8152606084018b90526080840189905260a08401889052600160c085018190525f87815260089093529490912083518155915193820180546001600160a01b0319166001600160a01b039095169490941790935591519091906002820190610e5e9082611fde565b5060608201516003820190610e739082611fde565b506080820151600482015560a08201518051610e99916005840191602090910190611959565b5060c091909101516006909101805460ff1916911515919091179055604051339082907fc29f819ac362ff9c94de06666235808451aafd8894a2dffb86a080a965efeae390610eeb908b90899061209a565b60405180910390a360078054905f610f02836120bb565b9091555090979650505050505050565b5f6001600160a01b038216610f3c576040516322718ad960e21b81525f60048201526024016104dc565b506001600160a01b03165f9081526003602052604090205490565b60606001805461040090611f62565b33610f7082610db9565b6001600160a01b031614610fd15760405162461bcd60e51b815260206004820152602260248201527f4f6e6c79206167656e74206f776e65722063616e20746f67676c652073746174604482015261757360f01b60648201526084016104dc565b5f908152600860205260409020600601805460ff19811660ff90911615179055565b6104b33383836112b2565b6110098484846104b7565b61053f3385858585611379565b606061102182611113565b505f61103760408051602081019091525f815290565b90505f611043846114a1565b905081515f03611054579392505050565b80511561108657818160405160200161106e9291906120df565b60405160208183030381529060405292505050919050565b61108f84611540565b949350505050565b6001600160a01b039182165f90815260056020908152604080832093909416825291909152205460ff1690565b5f6001600160e01b031982166380ac58cd60e01b14806110f457506001600160e01b03198216635b5e139f60e01b145b806103ec57506301ffc9a760e01b6001600160e01b03198316146103ec565b5f818152600260205260408120546001600160a01b0316806103ec57604051637e27328960e01b8152600481018490526024016104dc565b610c6683838360016115b1565b5f828152600260205260408120546001600160a01b0390811690831615611184576111848184866116b5565b6001600160a01b038116156111be5761119f5f855f806115b1565b6001600160a01b0381165f90815260036020526040902080545f190190555b6001600160a01b038516156111ec576001600160a01b0385165f908152600360205260409020805460010190555b5f8481526002602052604080822080546001600160a01b0319166001600160a01b0389811691821790925591518793918516917fddf252ad1be2c89b69c2b068fc378daa952ba7f163c4a11628f55a4df523b3ef91a4949350505050565b6104b3828260405180602001604052805f815250611719565b5f82815260066020526040902061127a8282611fde565b506040518281527ff8e1a15aba9398e019f0b49df1a4fde98ee17ae345cb5f6b5e2c27f5033e8ce79060200160405180910390a15050565b6001600160a01b0383166112db5760405163a9fbf51f60e01b81525f60048201526024016104dc565b6001600160a01b03821661130d57604051630b61174360e31b81526001600160a01b03831660048201526024016104dc565b6001600160a01b038381165f81815260056020908152604080832094871680845294825291829020805460ff191686151590811790915591519182527f17307eab39ab6107e8899845ad3d59bd9653f200f220920489ca2b5937696c31910160405180910390a3505050565b6001600160a01b0383163b1561149a57604051630a85bd0160e11b81526001600160a01b0384169063150b7a02906113bb90889088908790879060040161210d565b6020604051808303815f875af19250505080156113f5575060408051601f3d908101601f191682019092526113f291810190612149565b60015b61145c573d808015611422576040519150601f19603f3d011682016040523d82523d5f602084013e611427565b606091505b5080515f0361145457604051633250574960e11b81526001600160a01b03851660048201526024016104dc565b805160208201fd5b6001600160e01b03198116630a85bd0160e11b1461149857604051633250574960e11b81526001600160a01b03851660048201526024016104dc565b505b5050505050565b5f8181526006602052604090208054606091906114bd90611f62565b80601f01602080910402602001604051908101604052809291908181526020018280546114e990611f62565b80156115345780601f1061150b57610100808354040283529160200191611534565b820191905f5260205f20905b81548152906001019060200180831161151757829003601f168201915b50505050509050919050565b606061154b82611113565b505f61156160408051602081019091525f815290565b90505f81511161157f5760405180602001604052805f8152506115aa565b8061158984611730565b60405160200161159a9291906120df565b6040516020818303038152906040525b9392505050565b80806115c557506001600160a01b03821615155b15611686575f6115d484611113565b90506001600160a01b038316158015906116005750826001600160a01b0316816001600160a01b031614155b801561161357506116118184611097565b155b1561163c5760405163a9fbf51f60e01b81526001600160a01b03841660048201526024016104dc565b81156116845783856001600160a01b0316826001600160a01b03167f8c5be1e5ebec7d5bd14f71427d1e84f3dd0314c0f7b2291e5b200ac8c7c3b92560405160405180910390a45b505b50505f90815260046020526040902080546001600160a01b0319166001600160a01b0392909216919091179055565b6116c08383836117c0565b610c66576001600160a01b0383166116ee57604051637e27328960e01b8152600481018290526024016104dc565b60405163177e802f60e01b81526001600160a01b0383166004820152602481018290526044016104dc565b6117238383611821565b610c66335f858585611379565b60605f61173c83611882565b60010190505f8167ffffffffffffffff81111561175b5761175b611c84565b6040519080825280601f01601f191660200182016040528015611785576020820181803683370190505b5090508181016020015b5f19016f181899199a1a9b1b9c1cb0b131b232b360811b600a86061a8153600a850494508461178f57509392505050565b5f6001600160a01b0383161580159061108f5750826001600160a01b0316846001600160a01b031614806117f957506117f98484611097565b8061108f5750505f908152600460205260409020546001600160a01b03908116911614919050565b6001600160a01b03821661184a57604051633250574960e11b81525f60048201526024016104dc565b5f61185683835f611158565b90506001600160a01b03811615610c66576040516339e3563760e11b81525f60048201526024016104dc565b5f8072184f03e93ff9f4daa797ed6e38ed64bf6a1f0160401b83106118c05772184f03e93ff9f4daa797ed6e38ed64bf6a1f0160401b830492506040015b6d04ee2d6d415b85acef810000000083106118ec576d04ee2d6d415b85acef8100000000830492506020015b662386f26fc10000831061190a57662386f26fc10000830492506010015b6305f5e1008310611922576305f5e100830492506008015b612710831061193657612710830492506004015b60648310611948576064830492506002015b600a83106103ec5760010192915050565b828054828255905f5260205f2090810192821561199d579160200282015b8281111561199d578251829061198d9082611fde565b5091602001919060010190611977565b506119a99291506119ad565b5090565b808211156119a9575f6119c082826119c9565b506001016119ad565b5080546119d590611f62565b5f825580601f106119e4575050565b601f0160209004905f5260205f2090810190611a009190611a03565b50565b5b808211156119a9575f8155600101611a04565b6001600160e01b031981168114611a00575f80fd5b5f60208284031215611a3c575f80fd5b81356115aa81611a17565b5f5b83811015611a61578181015183820152602001611a49565b50505f910152565b5f8151808452611a80816020860160208601611a47565b601f01601f19169290920160200192915050565b602081525f6115aa6020830184611a69565b5f60208284031215611ab6575f80fd5b5035919050565b80356001600160a01b0381168114611ad3575f80fd5b919050565b5f8060408385031215611ae9575f80fd5b611af283611abd565b946020939093013593505050565b5f805f60608486031215611b12575f80fd5b611b1b84611abd565b9250611b2960208501611abd565b9150604084013590509250925092565b5f602080835283518184015260018060a01b0381850151166040840152604084015160e06060850152611b70610100850182611a69565b90506060850151601f1980868403016080870152611b8e8383611a69565b9250608087015160a087015260a08701519150808684030160c08701528282518085528585019150858160051b86010186850194505f5b82811015611bf15784878303018452611bdf828751611a69565b95880195938801939150600101611bc5565b5060c08a015180151560e08b015296509998505050505050505050565b5f8060408385031215611c1f575f80fd5b50508035926020909101359150565b8681526001600160a01b038616602082015260c0604082018190525f90611c5790830187611a69565b8281036060840152611c698187611a69565b6080840195909552505090151560a090910152949350505050565b634e487b7160e01b5f52604160045260245ffd5b604051601f8201601f1916810167ffffffffffffffff81118282101715611cc157611cc1611c84565b604052919050565b5f67ffffffffffffffff831115611ce257611ce2611c84565b611cf5601f8401601f1916602001611c98565b9050828152838383011115611d08575f80fd5b828260208301375f602084830101529392505050565b5f82601f830112611d2d575f80fd5b6115aa83833560208501611cc9565b5f805f805f60a08688031215611d50575f80fd5b853567ffffffffffffffff80821115611d67575f80fd5b611d7389838a01611d1e565b9650602091508188013581811115611d89575f80fd5b611d958a828b01611d1e565b965050604088013581811115611da9575f80fd5b611db58a828b01611d1e565b95505060608801359350608088013581811115611dd0575f80fd5b8801601f81018a13611de0575f80fd5b803582811115611df257611df2611c84565b8060051b611e01858201611c98565b918252828101850191858101908d841115611e1a575f80fd5b86850192505b83831015611e5457823586811115611e36575f80fd5b611e448f8983890101611d1e565b8352509186019190860190611e20565b809750505050505050509295509295909350565b5f60208284031215611e78575f80fd5b6115aa82611abd565b5f8060408385031215611e92575f80fd5b611e9b83611abd565b915060208301358015158114611eaf575f80fd5b809150509250929050565b5f805f8060808587031215611ecd575f80fd5b611ed685611abd565b9350611ee460208601611abd565b925060408501359150606085013567ffffffffffffffff811115611f06575f80fd5b8501601f81018713611f16575f80fd5b611f2587823560208401611cc9565b91505092959194509250565b5f8060408385031215611f42575f80fd5b611f4b83611abd565b9150611f5960208401611abd565b90509250929050565b600181811c90821680611f7657607f821691505b602082108103611f9457634e487b7160e01b5f52602260045260245ffd5b50919050565b601f821115610c6657805f5260205f20601f840160051c81016020851015611fbf5750805b601f840160051c820191505b8181101561149a575f8155600101611fcb565b815167ffffffffffffffff811115611ff857611ff8611c84565b61200c816120068454611f62565b84611f9a565b602080601f83116001811461203f575f84156120285750858301515b5f19600386901b1c1916600185901b178555611498565b5f85815260208120601f198616915b8281101561206d5788860151825594840194600190910190840161204e565b508582101561208a57878501515f19600388901b60f8161c191681555b5050505050600190811b01905550565b604081525f6120ac6040830185611a69565b90508260208301529392505050565b5f600182016120d857634e487b7160e01b5f52601160045260245ffd5b5060010190565b5f83516120f0818460208801611a47565b835190830190612104818360208801611a47565b01949350505050565b6001600160a01b03858116825284166020820152604081018390526080606082018190525f9061213f90830184611a69565b9695505050505050565b5f60208284031215612159575f80fd5b81516115aa81611a1756fea26469706673582212201ec4eeb4ba37bd7a20cbca9eaf7ac4ef6bc4e803e742eb507dc4eb9e477c7e4864736f6c63430008180033",
  "linkReferences": {},
  "deployedLinkReferences": {}
}