{
  "_format": "hh-sol-artifact-1",
  "contractName": "Reputation",
  "sourceName": "contracts/Reputation.sol",
  "abi": [
    {
      "anonymous": false,
      "inputs": [
        {
          "indexed": true,
          "internalType": "uint256",
          "name": "agentId",
          "type": "uint256"
        },
        {
          "indexed": true,
          "internalType": "address",
          "name": "rater",
          "type": "address"
        },
        {
          "indexed": false,
          "internalType": "uint8",
          "name": "score",
          "type": "uint8"
        },
        {
          "indexed": false,
          "internalType": "string",
          "name": "comment",
          "type": "string"
        }
      ],
      "name": "AgentRated",
      "type": "event"
    },
    {
      "inputs": [
        {
          "internalType": "uint256",
          "name": "",
          "type": "uint256"
        }
      ],
      "name": "agentReputation",
      "outputs": [
        {
          "internalType": "uint256",
          "name": "",
          "type": "uint256"
        }
      ],
      "stateMutability": "view",
      "type": "function"
    },
    {
      "inputs": [
        {
          "internalType": "uint256",
          "name": "agentId",
          "type": "uint256"
        }
      ],
      "name": "getRatings",
      "outputs": [
        {
          "components": [
            {
              "internalType": "address",
              "name": "rater",
              "type": "address"
            },
            {
              "internalType": "uint8",
              "name": "score",
              "type": "uint8"
            },
            {
              "internalType": "string",
              "name": "comment",
              "type": "string"
            },
            {
              "internalType": "uint256",
              "name": "timestamp",
              "type": "uint256"
            }
          ],
          "internalType": "struct Reputation.Rating[]",
          "name": "",
          "type": "tuple[]"
        }
      ],
      "stateMutability": "view",
      "type": "function"
    },
    {
      "inputs": [
        {
          "internalType": "uint256",
          "name": "agentId",
          "type": "uint256"
        }
      ],
      "name": "getRatingsCount",
      "outputs": [
        {
          "internalType": "uint256",
          "name": "",
          "type": "uint256"
        }
      ],
      "stateMutability": "view",
      "type": "function"
    },
    {
      "inputs": [
        {
          "internalType": "uint256",
          "name": "agentId",
          "type": "uint256"
        },
        {
          "internalType": "uint8",
          "name": "score",
          "type": "uint8"
        },
        {
          "internalType": "string",
          "name": "comment",
          "type": "string"
        }
      ],
      "name": "rateAgent",
      "outputs": [],
      "stateMutability": "nonpayable",
      "type": "function"
    }
  ],
  "bytecode": "0x608060405234801561000f575f80fd5b506107948061001d5f395ff3fe608060405234801561000f575f80fd5b506004361061004a575f3560e01c80631ad1b8321461004e578063b7e16a8814610063578063d18e250914610095578063debfc4ef146100b5575b5f80fd5b61006161005c366004610408565b6100d4565b005b61008261007136600461048f565b5f9081526020819052604090205490565b6040519081526020015b60405180910390f35b6100a86100a336600461048f565b6102e1565b60405161008c91906104a6565b6100826100c336600461048f565b60016020525f908152604090205481565b5f8360ff161180156100ea575060648360ff1611155b61013a5760405162461bcd60e51b815260206004820152601f60248201527f53636f7265206d757374206265206265747765656e203120616e642031303000604482015260640160405180910390fd5b5f808581526020019081526020015f206040518060800160405280336001600160a01b031681526020018560ff16815260200184848080601f0160208091040260200160405190810160405280939291908181526020018383808284375f9201829052509385525050426020938401525083546001818101865594825290829020835160039092020180549284015160ff16600160a01b026001600160a81b03199093166001600160a01b03909216919091179190911781556040820151919290919082019061020a908261060e565b50606091909101516002909101555f84815260208190526040812054815b8181101561027d575f87815260208190526040902080548290811061024f5761024f6106ce565b5f91825260209091206003909102015461027390600160a01b900460ff16846106e2565b9250600101610228565b506102888183610707565b5f87815260016020526040908190209190915551339087907f1ae88f4cec169a7e0d8d596f8a764847b164ff0af6e8fe8ed03a591f9b33e426906102d190899089908990610726565b60405180910390a3505050505050565b5f81815260208181526040808320805482518185028101850190935280835260609492939192909184015b828210156103fd575f848152602090819020604080516080810182526003860290920180546001600160a01b0381168452600160a01b900460ff1693830193909352600183018054929392918401916103649061058a565b80601f01602080910402602001604051908101604052809291908181526020018280546103909061058a565b80156103db5780601f106103b2576101008083540402835291602001916103db565b820191905f5260205f20905b8154815290600101906020018083116103be57829003601f168201915b505050505081526020016002820154815250508152602001906001019061030c565b505050509050919050565b5f805f806060858703121561041b575f80fd5b84359350602085013560ff81168114610432575f80fd5b9250604085013567ffffffffffffffff8082111561044e575f80fd5b818701915087601f830112610461575f80fd5b81358181111561046f575f80fd5b886020828501011115610480575f80fd5b95989497505060200194505050565b5f6020828403121561049f575f80fd5b5035919050565b5f60208083018184528085518083526040925060408601915060408160051b8701018488015f5b8381101561056857888303603f19018552815180516001600160a01b031684528781015160ff168885015286810151608088860181905281519086018190525f91905b8083101561052e578183018b015187840160a00152918a0191610510565b5f87820160a09081019190915260609485015194880194909452978a0197601f01601f1916909501909101935050908601906001016104cd565b509098975050505050505050565b634e487b7160e01b5f52604160045260245ffd5b600181811c9082168061059e57607f821691505b6020821081036105bc57634e487b7160e01b5f52602260045260245ffd5b50919050565b601f82111561060957805f5260205f20601f840160051c810160208510156105e75750805b601f840160051c820191505b81811015610606575f81556001016105f3565b50505b505050565b815167ffffffffffffffff81111561062857610628610576565b61063c81610636845461058a565b846105c2565b602080601f83116001811461066f575f84156106585750858301515b5f19600386901b1c1916600185901b1785556106c6565b5f85815260208120601f198616915b8281101561069d5788860151825594840194600190910190840161067e565b50858210156106ba57878501515f19600388901b60f8161c191681555b505060018460011b0185555b505050505050565b634e487b7160e01b5f52603260045260245ffd5b8082018082111561070157634e487b7160e01b5f52601160045260245ffd5b92915050565b5f8261072157634e487b7160e01b5f52601260045260245ffd5b500490565b60ff8416815260406020820152816040820152818360608301375f818301606090810191909152601f909201601f191601019291505056fea2646970667358221220b62fc68cb3391ff87269f1d509660645eaa1a9d667e9a36e3e73b8687d9f271164736f6c63430008180033",
  "linkReferences": {},
  "deployedLinkReferences": {}
}